{
  "contractName": "EWENFT",
  "abi": [
    {
      "inputs": [],
      "stateMutability": "nonpayable",
      "type": "constructor"
    },
    {
      "anonymous": false,
      "inputs": [
        {
          "indexed": true,
          "internalType": "address",
          "name": "owner",
          "type": "address"
        },
        {
          "indexed": true,
          "internalType": "address",
          "name": "approved",
          "type": "address"
        },
        {
          "indexed": true,
          "internalType": "uint256",
          "name": "tokenId",
          "type": "uint256"
        }
      ],
      "name": "Approval",
      "type": "event"
    },
    {
      "anonymous": false,
      "inputs": [
        {
          "indexed": true,
          "internalType": "address",
          "name": "owner",
          "type": "address"
        },
        {
          "indexed": true,
          "internalType": "address",
          "name": "operator",
          "type": "address"
        },
        {
          "indexed": false,
          "internalType": "bool",
          "name": "approved",
          "type": "bool"
        }
      ],
      "name": "ApprovalForAll",
      "type": "event"
    },
    {
      "anonymous": false,
      "inputs": [
        {
          "indexed": true,
          "internalType": "address",
          "name": "previousOwner",
          "type": "address"
        },
        {
          "indexed": true,
          "internalType": "address",
          "name": "newOwner",
          "type": "address"
        }
      ],
      "name": "OwnershipTransferred",
      "type": "event"
    },
    {
      "anonymous": false,
      "inputs": [
        {
          "indexed": true,
          "internalType": "address",
          "name": "from",
          "type": "address"
        },
        {
          "indexed": true,
          "internalType": "address",
          "name": "to",
          "type": "address"
        },
        {
          "indexed": true,
          "internalType": "uint256",
          "name": "tokenId",
          "type": "uint256"
        }
      ],
      "name": "Transfer",
      "type": "event"
    },
    {
      "inputs": [
        {
          "internalType": "address",
          "name": "to",
          "type": "address"
        },
        {
          "internalType": "uint256",
          "name": "tokenId",
          "type": "uint256"
        }
      ],
      "name": "approve",
      "outputs": [],
      "stateMutability": "nonpayable",
      "type": "function"
    },
    {
      "inputs": [
        {
          "internalType": "address",
          "name": "owner",
          "type": "address"
        }
      ],
      "name": "balanceOf",
      "outputs": [
        {
          "internalType": "uint256",
          "name": "",
          "type": "uint256"
        }
      ],
      "stateMutability": "view",
      "type": "function"
    },
    {
      "inputs": [
        {
          "internalType": "uint256",
          "name": "tokenId",
          "type": "uint256"
        }
      ],
      "name": "getApproved",
      "outputs": [
        {
          "internalType": "address",
          "name": "",
          "type": "address"
        }
      ],
      "stateMutability": "view",
      "type": "function"
    },
    {
      "inputs": [
        {
          "internalType": "address",
          "name": "owner",
          "type": "address"
        },
        {
          "internalType": "address",
          "name": "operator",
          "type": "address"
        }
      ],
      "name": "isApprovedForAll",
      "outputs": [
        {
          "internalType": "bool",
          "name": "",
          "type": "bool"
        }
      ],
      "stateMutability": "view",
      "type": "function"
    },
    {
      "inputs": [],
      "name": "name",
      "outputs": [
        {
          "internalType": "string",
          "name": "",
          "type": "string"
        }
      ],
      "stateMutability": "view",
      "type": "function"
    },
    {
      "inputs": [],
      "name": "owner",
      "outputs": [
        {
          "internalType": "address",
          "name": "",
          "type": "address"
        }
      ],
      "stateMutability": "view",
      "type": "function"
    },
    {
      "inputs": [
        {
          "internalType": "uint256",
          "name": "tokenId",
          "type": "uint256"
        }
      ],
      "name": "ownerOf",
      "outputs": [
        {
          "internalType": "address",
          "name": "",
          "type": "address"
        }
      ],
      "stateMutability": "view",
      "type": "function"
    },
    {
      "inputs": [],
      "name": "renounceOwnership",
      "outputs": [],
      "stateMutability": "nonpayable",
      "type": "function"
    },
    {
      "inputs": [
        {
          "internalType": "address",
          "name": "from",
          "type": "address"
        },
        {
          "internalType": "address",
          "name": "to",
          "type": "address"
        },
        {
          "internalType": "uint256",
          "name": "tokenId",
          "type": "uint256"
        }
      ],
      "name": "safeTransferFrom",
      "outputs": [],
      "stateMutability": "nonpayable",
      "type": "function"
    },
    {
      "inputs": [
        {
          "internalType": "address",
          "name": "from",
          "type": "address"
        },
        {
          "internalType": "address",
          "name": "to",
          "type": "address"
        },
        {
          "internalType": "uint256",
          "name": "tokenId",
          "type": "uint256"
        },
        {
          "internalType": "bytes",
          "name": "data",
          "type": "bytes"
        }
      ],
      "name": "safeTransferFrom",
      "outputs": [],
      "stateMutability": "nonpayable",
      "type": "function"
    },
    {
      "inputs": [
        {
          "internalType": "address",
          "name": "operator",
          "type": "address"
        },
        {
          "internalType": "bool",
          "name": "approved",
          "type": "bool"
        }
      ],
      "name": "setApprovalForAll",
      "outputs": [],
      "stateMutability": "nonpayable",
      "type": "function"
    },
    {
      "inputs": [
        {
          "internalType": "bytes4",
          "name": "interfaceId",
          "type": "bytes4"
        }
      ],
      "name": "supportsInterface",
      "outputs": [
        {
          "internalType": "bool",
          "name": "",
          "type": "bool"
        }
      ],
      "stateMutability": "view",
      "type": "function"
    },
    {
      "inputs": [],
      "name": "symbol",
      "outputs": [
        {
          "internalType": "string",
          "name": "",
          "type": "string"
        }
      ],
      "stateMutability": "view",
      "type": "function"
    },
    {
      "inputs": [
        {
          "internalType": "uint256",
          "name": "tokenId",
          "type": "uint256"
        }
      ],
      "name": "tokenURI",
      "outputs": [
        {
          "internalType": "string",
          "name": "",
          "type": "string"
        }
      ],
      "stateMutability": "view",
      "type": "function"
    },
    {
      "inputs": [
        {
          "internalType": "address",
          "name": "from",
          "type": "address"
        },
        {
          "internalType": "address",
          "name": "to",
          "type": "address"
        },
        {
          "internalType": "uint256",
          "name": "tokenId",
          "type": "uint256"
        }
      ],
      "name": "transferFrom",
      "outputs": [],
      "stateMutability": "nonpayable",
      "type": "function"
    },
    {
      "inputs": [
        {
          "internalType": "address",
          "name": "newOwner",
          "type": "address"
        }
      ],
      "name": "transferOwnership",
      "outputs": [],
      "stateMutability": "nonpayable",
      "type": "function"
    },
    {
      "inputs": [
        {
          "internalType": "address",
          "name": "recipient",
          "type": "address"
        },
        {
          "internalType": "string",
          "name": "tokenURI",
          "type": "string"
        }
      ],
      "name": "mintNFT",
      "outputs": [
        {
          "internalType": "uint256",
          "name": "",
          "type": "uint256"
        }
      ],
      "stateMutability": "nonpayable",
      "type": "function"
    },
    {
      "inputs": [
        {
          "internalType": "address",
          "name": "tokenAddress",
          "type": "address"
        }
      ],
      "name": "setToken",
      "outputs": [
        {
          "internalType": "bool",
          "name": "",
          "type": "bool"
        }
      ],
      "stateMutability": "nonpayable",
      "type": "function"
    }
  ],
  "bytecode": "0x60806040523480156200001157600080fd5b506040518060400160405280600781526020017f4557454e465473000000000000000000000000000000000000000000000000008152506040518060400160405280600681526020017f4557454e4654000000000000000000000000000000000000000000000000000081525081600090816200008f919062000422565b508060019081620000a1919062000422565b505050620000c4620000b8620000da60201b60201c565b620000e260201b60201c565b68056bc75e2d63100000600a8190555062000509565b600033905090565b6000600760009054906101000a900473ffffffffffffffffffffffffffffffffffffffff16905081600760006101000a81548173ffffffffffffffffffffffffffffffffffffffff021916908373ffffffffffffffffffffffffffffffffffffffff1602179055508173ffffffffffffffffffffffffffffffffffffffff168173ffffffffffffffffffffffffffffffffffffffff167f8be0079c531659141344cd1fd0a4f28419497f9722a3daafe3b4186f6b6457e060405160405180910390a35050565b600081519050919050565b7f4e487b7100000000000000000000000000000000000000000000000000000000600052604160045260246000fd5b7f4e487b7100000000000000000000000000000000000000000000000000000000600052602260045260246000fd5b600060028204905060018216806200022a57607f821691505b60208210810362000240576200023f620001e2565b5b50919050565b60008190508160005260206000209050919050565b60006020601f8301049050919050565b600082821b905092915050565b600060088302620002aa7fffffffffffffffffffffffffffffffffffffffffffffffffffffffffffffffff826200026b565b620002b686836200026b565b95508019841693508086168417925050509392505050565b6000819050919050565b6000819050919050565b600062000303620002fd620002f784620002ce565b620002d8565b620002ce565b9050919050565b6000819050919050565b6200031f83620002e2565b620003376200032e826200030a565b84845462000278565b825550505050565b600090565b6200034e6200033f565b6200035b81848462000314565b505050565b5b8181101562000383576200037760008262000344565b60018101905062000361565b5050565b601f821115620003d2576200039c8162000246565b620003a7846200025b565b81016020851015620003b7578190505b620003cf620003c6856200025b565b83018262000360565b50505b505050565b600082821c905092915050565b6000620003f760001984600802620003d7565b1980831691505092915050565b6000620004128383620003e4565b9150826002028217905092915050565b6200042d82620001a8565b67ffffffffffffffff811115620004495762000448620001b3565b5b62000455825462000211565b6200046282828562000387565b600060209050601f8311600181146200049a576000841562000485578287015190505b62000491858262000404565b86555062000501565b601f198416620004aa8662000246565b60005b82811015620004d457848901518255600182019150602085019450602081019050620004ad565b86831015620004f45784890151620004f0601f891682620003e4565b8355505b6001600288020188555050505b505050505050565b61324080620005196000396000f3fe608060405234801561001057600080fd5b50600436106101165760003560e01c8063715018a6116100a2578063b88d4fde11610071578063b88d4fde146102df578063c87b56dd146102fb578063e985e9c51461032b578063eacabe141461035b578063f2fde38b1461038b57610116565b8063715018a61461027d5780638da5cb5b1461028757806395d89b41146102a5578063a22cb465146102c357610116565b8063144fa6d7116100e9578063144fa6d7146101b557806323b872dd146101e557806342842e0e146102015780636352211e1461021d57806370a082311461024d57610116565b806301ffc9a71461011b57806306fdde031461014b578063081812fc14610169578063095ea7b314610199575b600080fd5b61013560048036038101906101309190611edf565b6103a7565b6040516101429190611f27565b60405180910390f35b610153610489565b6040516101609190611fd2565b60405180910390f35b610183600480360381019061017e919061202a565b61051b565b6040516101909190612098565b60405180910390f35b6101b360048036038101906101ae91906120df565b610561565b005b6101cf60048036038101906101ca919061211f565b610678565b6040516101dc9190611f27565b60405180910390f35b6101ff60048036038101906101fa919061214c565b610705565b005b61021b6004803603810190610216919061214c565b610765565b005b6102376004803603810190610232919061202a565b610785565b6040516102449190612098565b60405180910390f35b6102676004803603810190610262919061211f565b61080b565b60405161027491906121ae565b60405180910390f35b6102856108c2565b005b61028f6108d6565b60405161029c9190612098565b60405180910390f35b6102ad610900565b6040516102ba9190611fd2565b60405180910390f35b6102dd60048036038101906102d891906121f5565b610992565b005b6102f960048036038101906102f4919061236a565b6109a8565b005b6103156004803603810190610310919061202a565b610a0a565b6040516103229190611fd2565b60405180910390f35b610345600480360381019061034091906123ed565b610b1c565b6040516103529190611f27565b60405180910390f35b610375600480360381019061037091906124ce565b610bb0565b60405161038291906121ae565b60405180910390f35b6103a560048036038101906103a0919061211f565b610d3e565b005b60007f80ac58cd000000000000000000000000000000000000000000000000000000007bffffffffffffffffffffffffffffffffffffffffffffffffffffffff1916827bffffffffffffffffffffffffffffffffffffffffffffffffffffffff1916148061047257507f5b5e139f000000000000000000000000000000000000000000000000000000007bffffffffffffffffffffffffffffffffffffffffffffffffffffffff1916827bffffffffffffffffffffffffffffffffffffffffffffffffffffffff1916145b80610482575061048182610dc1565b5b9050919050565b60606000805461049890612559565b80601f01602080910402602001604051908101604052809291908181526020018280546104c490612559565b80156105115780601f106104e657610100808354040283529160200191610511565b820191906000526020600020905b8154815290600101906020018083116104f457829003601f168201915b5050505050905090565b600061052682610e2b565b6004600083815260200190815260200160002060009054906101000a900473ffffffffffffffffffffffffffffffffffffffff169050919050565b600061056c82610785565b90508073ffffffffffffffffffffffffffffffffffffffff168373ffffffffffffffffffffffffffffffffffffffff16036105dc576040517f08c379a00000000000000000000000000000000000000000000000000000000081526004016105d3906125fc565b60405180910390fd5b8073ffffffffffffffffffffffffffffffffffffffff166105fb610e76565b73ffffffffffffffffffffffffffffffffffffffff16148061062a575061062981610624610e76565b610b1c565b5b610669576040517f08c379a00000000000000000000000000000000000000000000000000000000081526004016106609061268e565b60405180910390fd5b6106738383610e7e565b505050565b6000610682610f37565b600073ffffffffffffffffffffffffffffffffffffffff168273ffffffffffffffffffffffffffffffffffffffff16036106bb57600080fd5b81600960006101000a81548173ffffffffffffffffffffffffffffffffffffffff021916908373ffffffffffffffffffffffffffffffffffffffff16021790555060019050919050565b610716610710610e76565b82610fb5565b610755576040517f08c379a000000000000000000000000000000000000000000000000000000000815260040161074c90612720565b60405180910390fd5b61076083838361104a565b505050565b610780838383604051806020016040528060008152506109a8565b505050565b60008061079183611343565b9050600073ffffffffffffffffffffffffffffffffffffffff168173ffffffffffffffffffffffffffffffffffffffff1603610802576040517f08c379a00000000000000000000000000000000000000000000000000000000081526004016107f99061278c565b60405180910390fd5b80915050919050565b60008073ffffffffffffffffffffffffffffffffffffffff168273ffffffffffffffffffffffffffffffffffffffff160361087b576040517f08c379a00000000000000000000000000000000000000000000000000000000081526004016108729061281e565b60405180910390fd5b600360008373ffffffffffffffffffffffffffffffffffffffff1673ffffffffffffffffffffffffffffffffffffffff168152602001908152602001600020549050919050565b6108ca610f37565b6108d46000611380565b565b6000600760009054906101000a900473ffffffffffffffffffffffffffffffffffffffff16905090565b60606001805461090f90612559565b80601f016020809104026020016040519081016040528092919081815260200182805461093b90612559565b80156109885780601f1061095d57610100808354040283529160200191610988565b820191906000526020600020905b81548152906001019060200180831161096b57829003601f168201915b5050505050905090565b6109a461099d610e76565b8383611446565b5050565b6109b96109b3610e76565b83610fb5565b6109f8576040517f08c379a00000000000000000000000000000000000000000000000000000000081526004016109ef90612720565b60405180910390fd5b610a04848484846115b2565b50505050565b6060610a1582610e2b565b6000600660008481526020019081526020016000208054610a3590612559565b80601f0160208091040260200160405190810160405280929190818152602001828054610a6190612559565b8015610aae5780601f10610a8357610100808354040283529160200191610aae565b820191906000526020600020905b815481529060010190602001808311610a9157829003601f168201915b505050505090506000610abf61160e565b90506000815103610ad4578192505050610b17565b600082511115610b09578082604051602001610af192919061287a565b60405160208183030381529060405292505050610b17565b610b1284611625565b925050505b919050565b6000600560008473ffffffffffffffffffffffffffffffffffffffff1673ffffffffffffffffffffffffffffffffffffffff16815260200190815260200160002060008373ffffffffffffffffffffffffffffffffffffffff1673ffffffffffffffffffffffffffffffffffffffff16815260200190815260200160002060009054906101000a900460ff16905092915050565b6000610bba610f37565b600a54600960009054906101000a900473ffffffffffffffffffffffffffffffffffffffff1673ffffffffffffffffffffffffffffffffffffffff166370a08231856040518263ffffffff1660e01b8152600401610c189190612098565b602060405180830381865afa158015610c35573d6000803e3d6000fd5b505050506040513d601f19601f82011682018060405250810190610c5991906128b3565b11610c6357600080fd5b600960009054906101000a900473ffffffffffffffffffffffffffffffffffffffff1673ffffffffffffffffffffffffffffffffffffffff166323b872dd8433600a546040518463ffffffff1660e01b8152600401610cc4939291906128e0565b6020604051808303816000875af1158015610ce3573d6000803e3d6000fd5b505050506040513d601f19601f82011682018060405250810190610d07919061292c565b50610d12600861168d565b6000610d1e60086116a3565b9050610d2a84826116b1565b610d3481846118ce565b8091505092915050565b610d46610f37565b600073ffffffffffffffffffffffffffffffffffffffff168173ffffffffffffffffffffffffffffffffffffffff1603610db5576040517f08c379a0000000000000000000000000000000000000000000000000000000008152600401610dac906129cb565b60405180910390fd5b610dbe81611380565b50565b60007f01ffc9a7000000000000000000000000000000000000000000000000000000007bffffffffffffffffffffffffffffffffffffffffffffffffffffffff1916827bffffffffffffffffffffffffffffffffffffffffffffffffffffffff1916149050919050565b610e348161193b565b610e73576040517f08c379a0000000000000000000000000000000000000000000000000000000008152600401610e6a9061278c565b60405180910390fd5b50565b600033905090565b816004600083815260200190815260200160002060006101000a81548173ffffffffffffffffffffffffffffffffffffffff021916908373ffffffffffffffffffffffffffffffffffffffff160217905550808273ffffffffffffffffffffffffffffffffffffffff16610ef183610785565b73ffffffffffffffffffffffffffffffffffffffff167f8c5be1e5ebec7d5bd14f71427d1e84f3dd0314c0f7b2291e5b200ac8c7c3b92560405160405180910390a45050565b610f3f610e76565b73ffffffffffffffffffffffffffffffffffffffff16610f5d6108d6565b73ffffffffffffffffffffffffffffffffffffffff1614610fb3576040517f08c379a0000000000000000000000000000000000000000000000000000000008152600401610faa90612a37565b60405180910390fd5b565b600080610fc183610785565b90508073ffffffffffffffffffffffffffffffffffffffff168473ffffffffffffffffffffffffffffffffffffffff16148061100357506110028185610b1c565b5b8061104157508373ffffffffffffffffffffffffffffffffffffffff166110298461051b565b73ffffffffffffffffffffffffffffffffffffffff16145b91505092915050565b8273ffffffffffffffffffffffffffffffffffffffff1661106a82610785565b73ffffffffffffffffffffffffffffffffffffffff16146110c0576040517f08c379a00000000000000000000000000000000000000000000000000000000081526004016110b790612ac9565b60405180910390fd5b600073ffffffffffffffffffffffffffffffffffffffff168273ffffffffffffffffffffffffffffffffffffffff160361112f576040517f08c379a000000000000000000000000000000000000000000000000000000000815260040161112690612b5b565b60405180910390fd5b61113c838383600161197c565b8273ffffffffffffffffffffffffffffffffffffffff1661115c82610785565b73ffffffffffffffffffffffffffffffffffffffff16146111b2576040517f08c379a00000000000000000000000000000000000000000000000000000000081526004016111a990612ac9565b60405180910390fd5b6004600082815260200190815260200160002060006101000a81549073ffffffffffffffffffffffffffffffffffffffff02191690556001600360008573ffffffffffffffffffffffffffffffffffffffff1673ffffffffffffffffffffffffffffffffffffffff168152602001908152602001600020600082825403925050819055506001600360008473ffffffffffffffffffffffffffffffffffffffff1673ffffffffffffffffffffffffffffffffffffffff16815260200190815260200160002060008282540192505081905550816002600083815260200190815260200160002060006101000a81548173ffffffffffffffffffffffffffffffffffffffff021916908373ffffffffffffffffffffffffffffffffffffffff160217905550808273ffffffffffffffffffffffffffffffffffffffff168473ffffffffffffffffffffffffffffffffffffffff167fddf252ad1be2c89b69c2b068fc378daa952ba7f163c4a11628f55a4df523b3ef60405160405180910390a461133e8383836001611aa2565b505050565b60006002600083815260200190815260200160002060009054906101000a900473ffffffffffffffffffffffffffffffffffffffff169050919050565b6000600760009054906101000a900473ffffffffffffffffffffffffffffffffffffffff16905081600760006101000a81548173ffffffffffffffffffffffffffffffffffffffff021916908373ffffffffffffffffffffffffffffffffffffffff1602179055508173ffffffffffffffffffffffffffffffffffffffff168173ffffffffffffffffffffffffffffffffffffffff167f8be0079c531659141344cd1fd0a4f28419497f9722a3daafe3b4186f6b6457e060405160405180910390a35050565b8173ffffffffffffffffffffffffffffffffffffffff168373ffffffffffffffffffffffffffffffffffffffff16036114b4576040517f08c379a00000000000000000000000000000000000000000000000000000000081526004016114ab90612bc7565b60405180910390fd5b80600560008573ffffffffffffffffffffffffffffffffffffffff1673ffffffffffffffffffffffffffffffffffffffff16815260200190815260200160002060008473ffffffffffffffffffffffffffffffffffffffff1673ffffffffffffffffffffffffffffffffffffffff16815260200190815260200160002060006101000a81548160ff0219169083151502179055508173ffffffffffffffffffffffffffffffffffffffff168373ffffffffffffffffffffffffffffffffffffffff167f17307eab39ab6107e8899845ad3d59bd9653f200f220920489ca2b5937696c31836040516115a59190611f27565b60405180910390a3505050565b6115bd84848461104a565b6115c984848484611aa8565b611608576040517f08c379a00000000000000000000000000000000000000000000000000000000081526004016115ff90612c59565b60405180910390fd5b50505050565b606060405180602001604052806000815250905090565b606061163082610e2b565b600061163a61160e565b9050600081511161165a5760405180602001604052806000815250611685565b8061166484611c2f565b60405160200161167592919061287a565b6040516020818303038152906040525b915050919050565b6001816000016000828254019250508190555050565b600081600001549050919050565b600073ffffffffffffffffffffffffffffffffffffffff168273ffffffffffffffffffffffffffffffffffffffff1603611720576040517f08c379a000000000000000000000000000000000000000000000000000000000815260040161171790612cc5565b60405180910390fd5b6117298161193b565b15611769576040517f08c379a000000000000000000000000000000000000000000000000000000000815260040161176090612d31565b60405180910390fd5b61177760008383600161197c565b6117808161193b565b156117c0576040517f08c379a00000000000000000000000000000000000000000000000000000000081526004016117b790612d31565b60405180910390fd5b6001600360008473ffffffffffffffffffffffffffffffffffffffff1673ffffffffffffffffffffffffffffffffffffffff16815260200190815260200160002060008282540192505081905550816002600083815260200190815260200160002060006101000a81548173ffffffffffffffffffffffffffffffffffffffff021916908373ffffffffffffffffffffffffffffffffffffffff160217905550808273ffffffffffffffffffffffffffffffffffffffff16600073ffffffffffffffffffffffffffffffffffffffff167fddf252ad1be2c89b69c2b068fc378daa952ba7f163c4a11628f55a4df523b3ef60405160405180910390a46118ca600083836001611aa2565b5050565b6118d78261193b565b611916576040517f08c379a000000000000000000000000000000000000000000000000000000000815260040161190d90612dc3565b60405180910390fd5b806006600084815260200190815260200160002090816119369190612f8f565b505050565b60008073ffffffffffffffffffffffffffffffffffffffff1661195d83611343565b73ffffffffffffffffffffffffffffffffffffffff1614159050919050565b6001811115611a9c57600073ffffffffffffffffffffffffffffffffffffffff168473ffffffffffffffffffffffffffffffffffffffff1614611a105780600360008673ffffffffffffffffffffffffffffffffffffffff1673ffffffffffffffffffffffffffffffffffffffff1681526020019081526020016000206000828254611a089190613090565b925050819055505b600073ffffffffffffffffffffffffffffffffffffffff168373ffffffffffffffffffffffffffffffffffffffff1614611a9b5780600360008573ffffffffffffffffffffffffffffffffffffffff1673ffffffffffffffffffffffffffffffffffffffff1681526020019081526020016000206000828254611a9391906130c4565b925050819055505b5b50505050565b50505050565b6000611ac98473ffffffffffffffffffffffffffffffffffffffff16611cfd565b15611c22578373ffffffffffffffffffffffffffffffffffffffff1663150b7a02611af2610e76565b8786866040518563ffffffff1660e01b8152600401611b14949392919061314d565b6020604051808303816000875af1925050508015611b5057506040513d601f19601f82011682018060405250810190611b4d91906131ae565b60015b611bd2573d8060008114611b80576040519150601f19603f3d011682016040523d82523d6000602084013e611b85565b606091505b506000815103611bca576040517f08c379a0000000000000000000000000000000000000000000000000000000008152600401611bc190612c59565b60405180910390fd5b805181602001fd5b63150b7a0260e01b7bffffffffffffffffffffffffffffffffffffffffffffffffffffffff1916817bffffffffffffffffffffffffffffffffffffffffffffffffffffffff191614915050611c27565b600190505b949350505050565b606060006001611c3e84611d20565b01905060008167ffffffffffffffff811115611c5d57611c5c61223f565b5b6040519080825280601f01601f191660200182016040528015611c8f5781602001600182028036833780820191505090505b509050600082602001820190505b600115611cf2578080600190039150507f3031323334353637383961626364656600000000000000000000000000000000600a86061a8153600a8581611ce657611ce56131db565b5b04945060008503611c9d575b819350505050919050565b6000808273ffffffffffffffffffffffffffffffffffffffff163b119050919050565b600080600090507a184f03e93ff9f4daa797ed6e38ed64bf6a1f0100000000000000008310611d7e577a184f03e93ff9f4daa797ed6e38ed64bf6a1f0100000000000000008381611d7457611d736131db565b5b0492506040810190505b6d04ee2d6d415b85acef81000000008310611dbb576d04ee2d6d415b85acef81000000008381611db157611db06131db565b5b0492506020810190505b662386f26fc100008310611dea57662386f26fc100008381611de057611ddf6131db565b5b0492506010810190505b6305f5e1008310611e13576305f5e1008381611e0957611e086131db565b5b0492506008810190505b6127108310611e38576127108381611e2e57611e2d6131db565b5b0492506004810190505b60648310611e5b5760648381611e5157611e506131db565b5b0492506002810190505b600a8310611e6a576001810190505b80915050919050565b6000604051905090565b600080fd5b600080fd5b60007fffffffff0000000000000000000000000000000000000000000000000000000082169050919050565b611ebc81611e87565b8114611ec757600080fd5b50565b600081359050611ed981611eb3565b92915050565b600060208284031215611ef557611ef4611e7d565b5b6000611f0384828501611eca565b91505092915050565b60008115159050919050565b611f2181611f0c565b82525050565b6000602082019050611f3c6000830184611f18565b92915050565b600081519050919050565b600082825260208201905092915050565b60005b83811015611f7c578082015181840152602081019050611f61565b60008484015250505050565b6000601f19601f8301169050919050565b6000611fa482611f42565b611fae8185611f4d565b9350611fbe818560208601611f5e565b611fc781611f88565b840191505092915050565b60006020820190508181036000830152611fec8184611f99565b905092915050565b6000819050919050565b61200781611ff4565b811461201257600080fd5b50565b60008135905061202481611ffe565b92915050565b6000602082840312156120405761203f611e7d565b5b600061204e84828501612015565b91505092915050565b600073ffffffffffffffffffffffffffffffffffffffff82169050919050565b600061208282612057565b9050919050565b61209281612077565b82525050565b60006020820190506120ad6000830184612089565b92915050565b6120bc81612077565b81146120c757600080fd5b50565b6000813590506120d9816120b3565b92915050565b600080604083850312156120f6576120f5611e7d565b5b6000612104858286016120ca565b925050602061211585828601612015565b9150509250929050565b60006020828403121561213557612134611e7d565b5b6000612143848285016120ca565b91505092915050565b60008060006060848603121561216557612164611e7d565b5b6000612173868287016120ca565b9350506020612184868287016120ca565b925050604061219586828701612015565b9150509250925092565b6121a881611ff4565b82525050565b60006020820190506121c3600083018461219f565b92915050565b6121d281611f0c565b81146121dd57600080fd5b50565b6000813590506121ef816121c9565b92915050565b6000806040838503121561220c5761220b611e7d565b5b600061221a858286016120ca565b925050602061222b858286016121e0565b9150509250929050565b600080fd5b600080fd5b7f4e487b7100000000000000000000000000000000000000000000000000000000600052604160045260246000fd5b61227782611f88565b810181811067ffffffffffffffff821117156122965761229561223f565b5b80604052505050565b60006122a9611e73565b90506122b5828261226e565b919050565b600067ffffffffffffffff8211156122d5576122d461223f565b5b6122de82611f88565b9050602081019050919050565b82818337600083830152505050565b600061230d612308846122ba565b61229f565b9050828152602081018484840111156123295761232861223a565b5b6123348482856122eb565b509392505050565b600082601f83011261235157612350612235565b5b81356123618482602086016122fa565b91505092915050565b6000806000806080858703121561238457612383611e7d565b5b6000612392878288016120ca565b94505060206123a3878288016120ca565b93505060406123b487828801612015565b925050606085013567ffffffffffffffff8111156123d5576123d4611e82565b5b6123e18782880161233c565b91505092959194509250565b6000806040838503121561240457612403611e7d565b5b6000612412858286016120ca565b9250506020612423858286016120ca565b9150509250929050565b600067ffffffffffffffff8211156124485761244761223f565b5b61245182611f88565b9050602081019050919050565b600061247161246c8461242d565b61229f565b90508281526020810184848401111561248d5761248c61223a565b5b6124988482856122eb565b509392505050565b600082601f8301126124b5576124b4612235565b5b81356124c584826020860161245e565b91505092915050565b600080604083850312156124e5576124e4611e7d565b5b60006124f3858286016120ca565b925050602083013567ffffffffffffffff81111561251457612513611e82565b5b612520858286016124a0565b9150509250929050565b7f4e487b7100000000000000000000000000000000000000000000000000000000600052602260045260246000fd5b6000600282049050600182168061257157607f821691505b6020821081036125845761258361252a565b5b50919050565b7f4552433732313a20617070726f76616c20746f2063757272656e74206f776e6560008201527f7200000000000000000000000000000000000000000000000000000000000000602082015250565b60006125e6602183611f4d565b91506125f18261258a565b604082019050919050565b60006020820190508181036000830152612615816125d9565b9050919050565b7f4552433732313a20617070726f76652063616c6c6572206973206e6f7420746f60008201527f6b656e206f776e6572206f7220617070726f76656420666f7220616c6c000000602082015250565b6000612678603d83611f4d565b91506126838261261c565b604082019050919050565b600060208201905081810360008301526126a78161266b565b9050919050565b7f4552433732313a2063616c6c6572206973206e6f7420746f6b656e206f776e6560008201527f72206f7220617070726f76656400000000000000000000000000000000000000602082015250565b600061270a602d83611f4d565b9150612715826126ae565b604082019050919050565b60006020820190508181036000830152612739816126fd565b9050919050565b7f4552433732313a20696e76616c696420746f6b656e2049440000000000000000600082015250565b6000612776601883611f4d565b915061278182612740565b602082019050919050565b600060208201905081810360008301526127a581612769565b9050919050565b7f4552433732313a2061646472657373207a65726f206973206e6f74206120766160008201527f6c6964206f776e65720000000000000000000000000000000000000000000000602082015250565b6000612808602983611f4d565b9150612813826127ac565b604082019050919050565b60006020820190508181036000830152612837816127fb565b9050919050565b600081905092915050565b600061285482611f42565b61285e818561283e565b935061286e818560208601611f5e565b80840191505092915050565b60006128868285612849565b91506128928284612849565b91508190509392505050565b6000815190506128ad81611ffe565b92915050565b6000602082840312156128c9576128c8611e7d565b5b60006128d78482850161289e565b91505092915050565b60006060820190506128f56000830186612089565b6129026020830185612089565b61290f604083018461219f565b949350505050565b600081519050612926816121c9565b92915050565b60006020828403121561294257612941611e7d565b5b600061295084828501612917565b91505092915050565b7f4f776e61626c653a206e6577206f776e657220697320746865207a65726f206160008201527f6464726573730000000000000000000000000000000000000000000000000000602082015250565b60006129b5602683611f4d565b91506129c082612959565b604082019050919050565b600060208201905081810360008301526129e4816129a8565b9050919050565b7f4f776e61626c653a2063616c6c6572206973206e6f7420746865206f776e6572600082015250565b6000612a21602083611f4d565b9150612a2c826129eb565b602082019050919050565b60006020820190508181036000830152612a5081612a14565b9050919050565b7f4552433732313a207472616e736665722066726f6d20696e636f72726563742060008201527f6f776e6572000000000000000000000000000000000000000000000000000000602082015250565b6000612ab3602583611f4d565b9150612abe82612a57565b604082019050919050565b60006020820190508181036000830152612ae281612aa6565b9050919050565b7f4552433732313a207472616e7366657220746f20746865207a65726f2061646460008201527f7265737300000000000000000000000000000000000000000000000000000000602082015250565b6000612b45602483611f4d565b9150612b5082612ae9565b604082019050919050565b60006020820190508181036000830152612b7481612b38565b9050919050565b7f4552433732313a20617070726f766520746f2063616c6c657200000000000000600082015250565b6000612bb1601983611f4d565b9150612bbc82612b7b565b602082019050919050565b60006020820190508181036000830152612be081612ba4565b9050919050565b7f4552433732313a207472616e7366657220746f206e6f6e20455243373231526560008201527f63656976657220696d706c656d656e7465720000000000000000000000000000602082015250565b6000612c43603283611f4d565b9150612c4e82612be7565b604082019050919050565b60006020820190508181036000830152612c7281612c36565b9050919050565b7f4552433732313a206d696e7420746f20746865207a65726f2061646472657373600082015250565b6000612caf602083611f4d565b9150612cba82612c79565b602082019050919050565b60006020820190508181036000830152612cde81612ca2565b9050919050565b7f4552433732313a20746f6b656e20616c7265616479206d696e74656400000000600082015250565b6000612d1b601c83611f4d565b9150612d2682612ce5565b602082019050919050565b60006020820190508181036000830152612d4a81612d0e565b9050919050565b7f45524337323155524953746f726167653a2055524920736574206f66206e6f6e60008201527f6578697374656e7420746f6b656e000000000000000000000000000000000000602082015250565b6000612dad602e83611f4d565b9150612db882612d51565b604082019050919050565b60006020820190508181036000830152612ddc81612da0565b9050919050565b60008190508160005260206000209050919050565b60006020601f8301049050919050565b600082821b905092915050565b600060088302612e457fffffffffffffffffffffffffffffffffffffffffffffffffffffffffffffffff82612e08565b612e4f8683612e08565b95508019841693508086168417925050509392505050565b6000819050919050565b6000612e8c612e87612e8284611ff4565b612e67565b611ff4565b9050919050565b6000819050919050565b612ea683612e71565b612eba612eb282612e93565b848454612e15565b825550505050565b600090565b612ecf612ec2565b612eda818484612e9d565b505050565b5b81811015612efe57612ef3600082612ec7565b600181019050612ee0565b5050565b601f821115612f4357612f1481612de3565b612f1d84612df8565b81016020851015612f2c578190505b612f40612f3885612df8565b830182612edf565b50505b505050565b600082821c905092915050565b6000612f6660001984600802612f48565b1980831691505092915050565b6000612f7f8383612f55565b9150826002028217905092915050565b612f9882611f42565b67ffffffffffffffff811115612fb157612fb061223f565b5b612fbb8254612559565b612fc6828285612f02565b600060209050601f831160018114612ff95760008415612fe7578287015190505b612ff18582612f73565b865550613059565b601f19841661300786612de3565b60005b8281101561302f5784890151825560018201915060208501945060208101905061300a565b8683101561304c5784890151613048601f891682612f55565b8355505b6001600288020188555050505b505050505050565b7f4e487b7100000000000000000000000000000000000000000000000000000000600052601160045260246000fd5b600061309b82611ff4565b91506130a683611ff4565b92508282039050818111156130be576130bd613061565b5b92915050565b60006130cf82611ff4565b91506130da83611ff4565b92508282019050808211156130f2576130f1613061565b5b92915050565b600081519050919050565b600082825260208201905092915050565b600061311f826130f8565b6131298185613103565b9350613139818560208601611f5e565b61314281611f88565b840191505092915050565b60006080820190506131626000830187612089565b61316f6020830186612089565b61317c604083018561219f565b818103606083015261318e8184613114565b905095945050505050565b6000815190506131a881611eb3565b92915050565b6000602082840312156131c4576131c3611e7d565b5b60006131d284828501613199565b91505092915050565b7f4e487b7100000000000000000000000000000000000000000000000000000000600052601260045260246000fdfea264697066735822122084766dffc35385a80e2476b04b1557196633560c1200f9350919022714c5142364736f6c63430008110033",
  "immutableReferences": {},
  "source": "// SPDX-License-Identifier: MIT\npragma solidity 0.8.17;\n\nimport '@openzeppelin/contracts/token/ERC721/ERC721.sol';\nimport '@openzeppelin/contracts/utils/Counters.sol';\nimport '@openzeppelin/contracts/access/Ownable.sol';\nimport '@openzeppelin/contracts/token/ERC721/extensions/ERC721URIStorage.sol';\nimport '@openzeppelin/contracts/token/ERC20/IERC20.sol';\n\ncontract EWENFT is ERC721URIStorage, Ownable {\n  using Counters for Counters.Counter;\n  Counters.Counter private _tokenIds;\n  IERC20 token;\n  uint256 nftPrice;\n\n  constructor() ERC721('EWENFTs', 'EWENFT') {\n    nftPrice = 100e18;\n  }\n\n  function mintNFT(address recipient, string memory tokenURI)\n    public\n    onlyOwner\n    returns (uint256)\n  {\n    require(token.balanceOf(recipient) > nftPrice);\n\n    token.transferFrom(recipient, msg.sender, nftPrice);\n\n    _tokenIds.increment();\n    uint256 newItemId = _tokenIds.current();\n    _mint(recipient, newItemId);\n    _setTokenURI(newItemId, tokenURI);\n\n    return newItemId;\n  }\n\n  function setToken(address tokenAddress) public onlyOwner returns (bool) {\n    require(tokenAddress != address(0x0));\n    token = IERC20(tokenAddress);\n    return true;\n  }\n}\n",
  "sourcePath": "/Users/sdh/Study/BEB_07/projects/beb-07-second-EWE/contracts/contracts/EWENFT.sol",
  "compiler": {
    "name": "solc",
    "version": "0.8.17+commit.8df45f5f.Emscripten.clang"
  },
  "schemaVersion": "3.4.11",
  "updatedAt": "2023-01-03T13:27:25.908Z",
  "devdoc": {
    "kind": "dev",
    "methods": {
      "approve(address,uint256)": {
        "details": "See {IERC721-approve}."
      },
      "balanceOf(address)": {
        "details": "See {IERC721-balanceOf}."
      },
      "getApproved(uint256)": {
        "details": "See {IERC721-getApproved}."
      },
      "isApprovedForAll(address,address)": {
        "details": "See {IERC721-isApprovedForAll}."
      },
      "name()": {
        "details": "See {IERC721Metadata-name}."
      },
      "owner()": {
        "details": "Returns the address of the current owner."
      },
      "ownerOf(uint256)": {
        "details": "See {IERC721-ownerOf}."
      },
      "renounceOwnership()": {
        "details": "Leaves the contract without owner. It will not be possible to call `onlyOwner` functions anymore. Can only be called by the current owner. NOTE: Renouncing ownership will leave the contract without an owner, thereby removing any functionality that is only available to the owner."
      },
      "safeTransferFrom(address,address,uint256)": {
        "details": "See {IERC721-safeTransferFrom}."
      },
      "safeTransferFrom(address,address,uint256,bytes)": {
        "details": "See {IERC721-safeTransferFrom}."
      },
      "setApprovalForAll(address,bool)": {
        "details": "See {IERC721-setApprovalForAll}."
      },
      "supportsInterface(bytes4)": {
        "details": "See {IERC165-supportsInterface}."
      },
      "symbol()": {
        "details": "See {IERC721Metadata-symbol}."
      },
      "tokenURI(uint256)": {
        "details": "See {IERC721Metadata-tokenURI}."
      },
      "transferFrom(address,address,uint256)": {
        "details": "See {IERC721-transferFrom}."
      },
      "transferOwnership(address)": {
        "details": "Transfers ownership of the contract to a new account (`newOwner`). Can only be called by the current owner."
      }
    },
    "version": 1
  },
  "userdoc": {
    "kind": "user",
    "methods": {},
    "version": 1
  }
}