{
  "contractName": "EWENFT",
  "abi": [
    {
      "inputs": [],
      "stateMutability": "nonpayable",
      "type": "constructor"
    },
    {
      "anonymous": false,
      "inputs": [
        {
          "indexed": true,
          "internalType": "address",
          "name": "owner",
          "type": "address"
        },
        {
          "indexed": true,
          "internalType": "address",
          "name": "approved",
          "type": "address"
        },
        {
          "indexed": true,
          "internalType": "uint256",
          "name": "tokenId",
          "type": "uint256"
        }
      ],
      "name": "Approval",
      "type": "event"
    },
    {
      "anonymous": false,
      "inputs": [
        {
          "indexed": true,
          "internalType": "address",
          "name": "owner",
          "type": "address"
        },
        {
          "indexed": true,
          "internalType": "address",
          "name": "operator",
          "type": "address"
        },
        {
          "indexed": false,
          "internalType": "bool",
          "name": "approved",
          "type": "bool"
        }
      ],
      "name": "ApprovalForAll",
      "type": "event"
    },
    {
      "anonymous": false,
      "inputs": [
        {
          "indexed": true,
          "internalType": "address",
          "name": "previousOwner",
          "type": "address"
        },
        {
          "indexed": true,
          "internalType": "address",
          "name": "newOwner",
          "type": "address"
        }
      ],
      "name": "OwnershipTransferred",
      "type": "event"
    },
    {
      "anonymous": false,
      "inputs": [
        {
          "indexed": true,
          "internalType": "address",
          "name": "from",
          "type": "address"
        },
        {
          "indexed": true,
          "internalType": "address",
          "name": "to",
          "type": "address"
        },
        {
          "indexed": true,
          "internalType": "uint256",
          "name": "tokenId",
          "type": "uint256"
        }
      ],
      "name": "Transfer",
      "type": "event"
    },
    {
      "inputs": [
        {
          "internalType": "address",
          "name": "to",
          "type": "address"
        },
        {
          "internalType": "uint256",
          "name": "tokenId",
          "type": "uint256"
        }
      ],
      "name": "approve",
      "outputs": [],
      "stateMutability": "nonpayable",
      "type": "function"
    },
    {
      "inputs": [
        {
          "internalType": "address",
          "name": "owner",
          "type": "address"
        }
      ],
      "name": "balanceOf",
      "outputs": [
        {
          "internalType": "uint256",
          "name": "",
          "type": "uint256"
        }
      ],
      "stateMutability": "view",
      "type": "function",
      "constant": true
    },
    {
      "inputs": [],
      "name": "baseTokenURI",
      "outputs": [
        {
          "internalType": "string",
          "name": "",
          "type": "string"
        }
      ],
      "stateMutability": "view",
      "type": "function",
      "constant": true
    },
    {
      "inputs": [
        {
          "internalType": "uint256",
          "name": "tokenId",
          "type": "uint256"
        }
      ],
      "name": "getApproved",
      "outputs": [
        {
          "internalType": "address",
          "name": "",
          "type": "address"
        }
      ],
      "stateMutability": "view",
      "type": "function",
      "constant": true
    },
    {
      "inputs": [
        {
          "internalType": "address",
          "name": "owner",
          "type": "address"
        },
        {
          "internalType": "address",
          "name": "operator",
          "type": "address"
        }
      ],
      "name": "isApprovedForAll",
      "outputs": [
        {
          "internalType": "bool",
          "name": "",
          "type": "bool"
        }
      ],
      "stateMutability": "view",
      "type": "function",
      "constant": true
    },
    {
      "inputs": [],
      "name": "name",
      "outputs": [
        {
          "internalType": "string",
          "name": "",
          "type": "string"
        }
      ],
      "stateMutability": "view",
      "type": "function",
      "constant": true
    },
    {
      "inputs": [],
      "name": "nftPrice",
      "outputs": [
        {
          "internalType": "uint256",
          "name": "",
          "type": "uint256"
        }
      ],
      "stateMutability": "view",
      "type": "function",
      "constant": true
    },
    {
      "inputs": [],
      "name": "owner",
      "outputs": [
        {
          "internalType": "address",
          "name": "",
          "type": "address"
        }
      ],
      "stateMutability": "view",
      "type": "function",
      "constant": true
    },
    {
      "inputs": [
        {
          "internalType": "uint256",
          "name": "tokenId",
          "type": "uint256"
        }
      ],
      "name": "ownerOf",
      "outputs": [
        {
          "internalType": "address",
          "name": "",
          "type": "address"
        }
      ],
      "stateMutability": "view",
      "type": "function",
      "constant": true
    },
    {
      "inputs": [],
      "name": "renounceOwnership",
      "outputs": [],
      "stateMutability": "nonpayable",
      "type": "function"
    },
    {
      "inputs": [
        {
          "internalType": "address",
          "name": "from",
          "type": "address"
        },
        {
          "internalType": "address",
          "name": "to",
          "type": "address"
        },
        {
          "internalType": "uint256",
          "name": "tokenId",
          "type": "uint256"
        }
      ],
      "name": "safeTransferFrom",
      "outputs": [],
      "stateMutability": "nonpayable",
      "type": "function"
    },
    {
      "inputs": [
        {
          "internalType": "address",
          "name": "from",
          "type": "address"
        },
        {
          "internalType": "address",
          "name": "to",
          "type": "address"
        },
        {
          "internalType": "uint256",
          "name": "tokenId",
          "type": "uint256"
        },
        {
          "internalType": "bytes",
          "name": "data",
          "type": "bytes"
        }
      ],
      "name": "safeTransferFrom",
      "outputs": [],
      "stateMutability": "nonpayable",
      "type": "function"
    },
    {
      "inputs": [
        {
          "internalType": "address",
          "name": "operator",
          "type": "address"
        },
        {
          "internalType": "bool",
          "name": "approved",
          "type": "bool"
        }
      ],
      "name": "setApprovalForAll",
      "outputs": [],
      "stateMutability": "nonpayable",
      "type": "function"
    },
    {
      "inputs": [
        {
          "internalType": "bytes4",
          "name": "interfaceId",
          "type": "bytes4"
        }
      ],
      "name": "supportsInterface",
      "outputs": [
        {
          "internalType": "bool",
          "name": "",
          "type": "bool"
        }
      ],
      "stateMutability": "view",
      "type": "function",
      "constant": true
    },
    {
      "inputs": [],
      "name": "symbol",
      "outputs": [
        {
          "internalType": "string",
          "name": "",
          "type": "string"
        }
      ],
      "stateMutability": "view",
      "type": "function",
      "constant": true
    },
    {
      "inputs": [
        {
          "internalType": "uint256",
          "name": "tokenId",
          "type": "uint256"
        }
      ],
      "name": "tokenURI",
      "outputs": [
        {
          "internalType": "string",
          "name": "",
          "type": "string"
        }
      ],
      "stateMutability": "view",
      "type": "function",
      "constant": true
    },
    {
      "inputs": [
        {
          "internalType": "address",
          "name": "from",
          "type": "address"
        },
        {
          "internalType": "address",
          "name": "to",
          "type": "address"
        },
        {
          "internalType": "uint256",
          "name": "tokenId",
          "type": "uint256"
        }
      ],
      "name": "transferFrom",
      "outputs": [],
      "stateMutability": "nonpayable",
      "type": "function"
    },
    {
      "inputs": [
        {
          "internalType": "address",
          "name": "newOwner",
          "type": "address"
        }
      ],
      "name": "transferOwnership",
      "outputs": [],
      "stateMutability": "nonpayable",
      "type": "function"
    },
    {
      "inputs": [
        {
          "internalType": "address",
          "name": "recipient",
          "type": "address"
        }
      ],
      "name": "mintNFT",
      "outputs": [
        {
          "internalType": "uint256",
          "name": "",
          "type": "uint256"
        }
      ],
      "stateMutability": "nonpayable",
      "type": "function"
    },
    {
      "inputs": [],
      "name": "getPrice",
      "outputs": [
        {
          "internalType": "uint256",
          "name": "",
          "type": "uint256"
        }
      ],
      "stateMutability": "view",
      "type": "function",
      "constant": true
    },
    {
      "inputs": [],
      "name": "getToken",
      "outputs": [
        {
          "internalType": "contract IERC20",
          "name": "",
          "type": "address"
        }
      ],
      "stateMutability": "view",
      "type": "function",
      "constant": true
    },
    {
      "inputs": [
        {
          "internalType": "address",
          "name": "tokenAddress",
          "type": "address"
        }
      ],
      "name": "setToken",
      "outputs": [
        {
          "internalType": "bool",
          "name": "",
          "type": "bool"
        }
      ],
      "stateMutability": "nonpayable",
      "type": "function"
    }
  ],
  "bytecode": "0x60806040523480156200001157600080fd5b506040518060400160405280600681526020017f4557454e465400000000000000000000000000000000000000000000000000008152506040518060400160405280600681526020017f4557454e4654000000000000000000000000000000000000000000000000000081525081600090816200008f919062000445565b508060019081620000a1919062000445565b505050620000c4620000b8620000fd60201b60201c565b6200010560201b60201c565b6001600b8190555060405180606001604052806035815260200162003a086035913960099081620000f6919062000445565b506200052c565b600033905090565b6000600760009054906101000a900473ffffffffffffffffffffffffffffffffffffffff16905081600760006101000a81548173ffffffffffffffffffffffffffffffffffffffff021916908373ffffffffffffffffffffffffffffffffffffffff1602179055508173ffffffffffffffffffffffffffffffffffffffff168173ffffffffffffffffffffffffffffffffffffffff167f8be0079c531659141344cd1fd0a4f28419497f9722a3daafe3b4186f6b6457e060405160405180910390a35050565b600081519050919050565b7f4e487b7100000000000000000000000000000000000000000000000000000000600052604160045260246000fd5b7f4e487b7100000000000000000000000000000000000000000000000000000000600052602260045260246000fd5b600060028204905060018216806200024d57607f821691505b60208210810362000263576200026262000205565b5b50919050565b60008190508160005260206000209050919050565b60006020601f8301049050919050565b600082821b905092915050565b600060088302620002cd7fffffffffffffffffffffffffffffffffffffffffffffffffffffffffffffffff826200028e565b620002d986836200028e565b95508019841693508086168417925050509392505050565b6000819050919050565b6000819050919050565b600062000326620003206200031a84620002f1565b620002fb565b620002f1565b9050919050565b6000819050919050565b620003428362000305565b6200035a62000351826200032d565b8484546200029b565b825550505050565b600090565b6200037162000362565b6200037e81848462000337565b505050565b5b81811015620003a6576200039a60008262000367565b60018101905062000384565b5050565b601f821115620003f557620003bf8162000269565b620003ca846200027e565b81016020851015620003da578190505b620003f2620003e9856200027e565b83018262000383565b50505b505050565b600082821c905092915050565b60006200041a60001984600802620003fa565b1980831691505092915050565b600062000435838362000407565b9150826002028217905092915050565b6200045082620001cb565b67ffffffffffffffff8111156200046c576200046b620001d6565b5b62000478825462000234565b62000485828285620003aa565b600060209050601f831160018114620004bd5760008415620004a8578287015190505b620004b4858262000427565b86555062000524565b601f198416620004cd8662000269565b60005b82811015620004f757848901518255600182019150602085019450602081019050620004d0565b8683101562000517578489015162000513601f89168262000407565b8355505b6001600288020188555050505b505050505050565b6134cc806200053c6000396000f3fe608060405234801561001057600080fd5b50600436106101425760003560e01c806370a08231116100b8578063a22cb4651161007c578063a22cb46514610379578063b88d4fde14610395578063c87b56dd146103b1578063d547cfb7146103e1578063e985e9c5146103ff578063f2fde38b1461042f57610142565b806370a08231146102e5578063715018a6146103155780638da5cb5b1461031f57806395d89b411461033d57806398d5fdca1461035b57610142565b8063144fa6d71161010a578063144fa6d7146101ff57806321df0da71461022f57806323b872dd1461024d57806342842e0e1461026957806354ba0f27146102855780636352211e146102b557610142565b806301ffc9a71461014757806306fdde0314610177578063081812fc14610195578063095ea7b3146101c55780630d39fc81146101e1575b600080fd5b610161600480360381019061015c91906120b0565b61044b565b60405161016e91906120f8565b60405180910390f35b61017f61052d565b60405161018c91906121a3565b60405180910390f35b6101af60048036038101906101aa91906121fb565b6105bf565b6040516101bc9190612269565b60405180910390f35b6101df60048036038101906101da91906122b0565b610605565b005b6101e961071c565b6040516101f691906122ff565b60405180910390f35b6102196004803603810190610214919061231a565b610722565b60405161022691906120f8565b60405180910390f35b6102376107e5565b60405161024491906123a6565b60405180910390f35b610267600480360381019061026291906123c1565b61080f565b005b610283600480360381019061027e91906123c1565b61086f565b005b61029f600480360381019061029a919061231a565b61088f565b6040516102ac91906122ff565b60405180910390f35b6102cf60048036038101906102ca91906121fb565b610a4c565b6040516102dc9190612269565b60405180910390f35b6102ff60048036038101906102fa919061231a565b610ad2565b60405161030c91906122ff565b60405180910390f35b61031d610b89565b005b610327610b9d565b6040516103349190612269565b60405180910390f35b610345610bc7565b60405161035291906121a3565b60405180910390f35b610363610c59565b60405161037091906122ff565b60405180910390f35b610393600480360381019061038e9190612440565b610c63565b005b6103af60048036038101906103aa91906125b5565b610c79565b005b6103cb60048036038101906103c691906121fb565b610cdb565b6040516103d891906121a3565b60405180910390f35b6103e9610ded565b6040516103f691906121a3565b60405180910390f35b61041960048036038101906104149190612638565b610e7b565b60405161042691906120f8565b60405180910390f35b6104496004803603810190610444919061231a565b610f0f565b005b60007f80ac58cd000000000000000000000000000000000000000000000000000000007bffffffffffffffffffffffffffffffffffffffffffffffffffffffff1916827bffffffffffffffffffffffffffffffffffffffffffffffffffffffff1916148061051657507f5b5e139f000000000000000000000000000000000000000000000000000000007bffffffffffffffffffffffffffffffffffffffffffffffffffffffff1916827bffffffffffffffffffffffffffffffffffffffffffffffffffffffff1916145b80610526575061052582610f92565b5b9050919050565b60606000805461053c906126a7565b80601f0160208091040260200160405190810160405280929190818152602001828054610568906126a7565b80156105b55780601f1061058a576101008083540402835291602001916105b5565b820191906000526020600020905b81548152906001019060200180831161059857829003601f168201915b5050505050905090565b60006105ca82610ffc565b6004600083815260200190815260200160002060009054906101000a900473ffffffffffffffffffffffffffffffffffffffff169050919050565b600061061082610a4c565b90508073ffffffffffffffffffffffffffffffffffffffff168373ffffffffffffffffffffffffffffffffffffffff1603610680576040517f08c379a00000000000000000000000000000000000000000000000000000000081526004016106779061274a565b60405180910390fd5b8073ffffffffffffffffffffffffffffffffffffffff1661069f611047565b73ffffffffffffffffffffffffffffffffffffffff1614806106ce57506106cd816106c8611047565b610e7b565b5b61070d576040517f08c379a0000000000000000000000000000000000000000000000000000000008152600401610704906127dc565b60405180910390fd5b610717838361104f565b505050565b600b5481565b600061072c611108565b600073ffffffffffffffffffffffffffffffffffffffff168273ffffffffffffffffffffffffffffffffffffffff160361079b576040517f08c379a000000000000000000000000000000000000000000000000000000000815260040161079290612848565b60405180910390fd5b81600a60006101000a81548173ffffffffffffffffffffffffffffffffffffffff021916908373ffffffffffffffffffffffffffffffffffffffff16021790555060019050919050565b6000600a60009054906101000a900473ffffffffffffffffffffffffffffffffffffffff16905090565b61082061081a611047565b82611186565b61085f576040517f08c379a0000000000000000000000000000000000000000000000000000000008152600401610856906128da565b60405180910390fd5b61086a83838361121b565b505050565b61088a83838360405180602001604052806000815250610c79565b505050565b6000610899611108565b600b54600a60009054906101000a900473ffffffffffffffffffffffffffffffffffffffff1673ffffffffffffffffffffffffffffffffffffffff166370a08231846040518263ffffffff1660e01b81526004016108f79190612269565b602060405180830381865afa158015610914573d6000803e3d6000fd5b505050506040513d601f19601f82011682018060405250810190610938919061290f565b1161094257600080fd5b600a60009054906101000a900473ffffffffffffffffffffffffffffffffffffffff1673ffffffffffffffffffffffffffffffffffffffff166323b872dd8333600b546040518463ffffffff1660e01b81526004016109a39392919061293c565b6020604051808303816000875af11580156109c2573d6000803e3d6000fd5b505050506040513d601f19601f820116820180604052508101906109e69190612988565b506109f16008611514565b60006109fd600861152a565b905060006009610a0c83611538565b604051602001610a1d929190612aaf565b6040516020818303038152906040529050610a388483611606565b610a428282611823565b8192505050919050565b600080610a5883611890565b9050600073ffffffffffffffffffffffffffffffffffffffff168173ffffffffffffffffffffffffffffffffffffffff1603610ac9576040517f08c379a0000000000000000000000000000000000000000000000000000000008152600401610ac090612b2e565b60405180910390fd5b80915050919050565b60008073ffffffffffffffffffffffffffffffffffffffff168273ffffffffffffffffffffffffffffffffffffffff1603610b42576040517f08c379a0000000000000000000000000000000000000000000000000000000008152600401610b3990612bc0565b60405180910390fd5b600360008373ffffffffffffffffffffffffffffffffffffffff1673ffffffffffffffffffffffffffffffffffffffff168152602001908152602001600020549050919050565b610b91611108565b610b9b60006118cd565b565b6000600760009054906101000a900473ffffffffffffffffffffffffffffffffffffffff16905090565b606060018054610bd6906126a7565b80601f0160208091040260200160405190810160405280929190818152602001828054610c02906126a7565b8015610c4f5780601f10610c2457610100808354040283529160200191610c4f565b820191906000526020600020905b815481529060010190602001808311610c3257829003601f168201915b5050505050905090565b6000600b54905090565b610c75610c6e611047565b8383611993565b5050565b610c8a610c84611047565b83611186565b610cc9576040517f08c379a0000000000000000000000000000000000000000000000000000000008152600401610cc0906128da565b60405180910390fd5b610cd584848484611aff565b50505050565b6060610ce682610ffc565b6000600660008481526020019081526020016000208054610d06906126a7565b80601f0160208091040260200160405190810160405280929190818152602001828054610d32906126a7565b8015610d7f5780601f10610d5457610100808354040283529160200191610d7f565b820191906000526020600020905b815481529060010190602001808311610d6257829003601f168201915b505050505090506000610d90611b5b565b90506000815103610da5578192505050610de8565b600082511115610dda578082604051602001610dc2929190612be0565b60405160208183030381529060405292505050610de8565b610de384611b72565b925050505b919050565b60098054610dfa906126a7565b80601f0160208091040260200160405190810160405280929190818152602001828054610e26906126a7565b8015610e735780601f10610e4857610100808354040283529160200191610e73565b820191906000526020600020905b815481529060010190602001808311610e5657829003601f168201915b505050505081565b6000600560008473ffffffffffffffffffffffffffffffffffffffff1673ffffffffffffffffffffffffffffffffffffffff16815260200190815260200160002060008373ffffffffffffffffffffffffffffffffffffffff1673ffffffffffffffffffffffffffffffffffffffff16815260200190815260200160002060009054906101000a900460ff16905092915050565b610f17611108565b600073ffffffffffffffffffffffffffffffffffffffff168173ffffffffffffffffffffffffffffffffffffffff1603610f86576040517f08c379a0000000000000000000000000000000000000000000000000000000008152600401610f7d90612c76565b60405180910390fd5b610f8f816118cd565b50565b60007f01ffc9a7000000000000000000000000000000000000000000000000000000007bffffffffffffffffffffffffffffffffffffffffffffffffffffffff1916827bffffffffffffffffffffffffffffffffffffffffffffffffffffffff1916149050919050565b61100581611bda565b611044576040517f08c379a000000000000000000000000000000000000000000000000000000000815260040161103b90612b2e565b60405180910390fd5b50565b600033905090565b816004600083815260200190815260200160002060006101000a81548173ffffffffffffffffffffffffffffffffffffffff021916908373ffffffffffffffffffffffffffffffffffffffff160217905550808273ffffffffffffffffffffffffffffffffffffffff166110c283610a4c565b73ffffffffffffffffffffffffffffffffffffffff167f8c5be1e5ebec7d5bd14f71427d1e84f3dd0314c0f7b2291e5b200ac8c7c3b92560405160405180910390a45050565b611110611047565b73ffffffffffffffffffffffffffffffffffffffff1661112e610b9d565b73ffffffffffffffffffffffffffffffffffffffff1614611184576040517f08c379a000000000000000000000000000000000000000000000000000000000815260040161117b90612ce2565b60405180910390fd5b565b60008061119283610a4c565b90508073ffffffffffffffffffffffffffffffffffffffff168473ffffffffffffffffffffffffffffffffffffffff1614806111d457506111d38185610e7b565b5b8061121257508373ffffffffffffffffffffffffffffffffffffffff166111fa846105bf565b73ffffffffffffffffffffffffffffffffffffffff16145b91505092915050565b8273ffffffffffffffffffffffffffffffffffffffff1661123b82610a4c565b73ffffffffffffffffffffffffffffffffffffffff1614611291576040517f08c379a000000000000000000000000000000000000000000000000000000000815260040161128890612d74565b60405180910390fd5b600073ffffffffffffffffffffffffffffffffffffffff168273ffffffffffffffffffffffffffffffffffffffff1603611300576040517f08c379a00000000000000000000000000000000000000000000000000000000081526004016112f790612e06565b60405180910390fd5b61130d8383836001611c1b565b8273ffffffffffffffffffffffffffffffffffffffff1661132d82610a4c565b73ffffffffffffffffffffffffffffffffffffffff1614611383576040517f08c379a000000000000000000000000000000000000000000000000000000000815260040161137a90612d74565b60405180910390fd5b6004600082815260200190815260200160002060006101000a81549073ffffffffffffffffffffffffffffffffffffffff02191690556001600360008573ffffffffffffffffffffffffffffffffffffffff1673ffffffffffffffffffffffffffffffffffffffff168152602001908152602001600020600082825403925050819055506001600360008473ffffffffffffffffffffffffffffffffffffffff1673ffffffffffffffffffffffffffffffffffffffff16815260200190815260200160002060008282540192505081905550816002600083815260200190815260200160002060006101000a81548173ffffffffffffffffffffffffffffffffffffffff021916908373ffffffffffffffffffffffffffffffffffffffff160217905550808273ffffffffffffffffffffffffffffffffffffffff168473ffffffffffffffffffffffffffffffffffffffff167fddf252ad1be2c89b69c2b068fc378daa952ba7f163c4a11628f55a4df523b3ef60405160405180910390a461150f8383836001611d41565b505050565b6001816000016000828254019250508190555050565b600081600001549050919050565b60606000600161154784611d47565b01905060008167ffffffffffffffff8111156115665761156561248a565b5b6040519080825280601f01601f1916602001820160405280156115985781602001600182028036833780820191505090505b509050600082602001820190505b6001156115fb578080600190039150507f3031323334353637383961626364656600000000000000000000000000000000600a86061a8153600a85816115ef576115ee612e26565b5b049450600085036115a6575b819350505050919050565b600073ffffffffffffffffffffffffffffffffffffffff168273ffffffffffffffffffffffffffffffffffffffff1603611675576040517f08c379a000000000000000000000000000000000000000000000000000000000815260040161166c90612ea1565b60405180910390fd5b61167e81611bda565b156116be576040517f08c379a00000000000000000000000000000000000000000000000000000000081526004016116b590612f0d565b60405180910390fd5b6116cc600083836001611c1b565b6116d581611bda565b15611715576040517f08c379a000000000000000000000000000000000000000000000000000000000815260040161170c90612f0d565b60405180910390fd5b6001600360008473ffffffffffffffffffffffffffffffffffffffff1673ffffffffffffffffffffffffffffffffffffffff16815260200190815260200160002060008282540192505081905550816002600083815260200190815260200160002060006101000a81548173ffffffffffffffffffffffffffffffffffffffff021916908373ffffffffffffffffffffffffffffffffffffffff160217905550808273ffffffffffffffffffffffffffffffffffffffff16600073ffffffffffffffffffffffffffffffffffffffff167fddf252ad1be2c89b69c2b068fc378daa952ba7f163c4a11628f55a4df523b3ef60405160405180910390a461181f600083836001611d41565b5050565b61182c82611bda565b61186b576040517f08c379a000000000000000000000000000000000000000000000000000000000815260040161186290612f9f565b60405180910390fd5b8060066000848152602001908152602001600020908161188b919061314c565b505050565b60006002600083815260200190815260200160002060009054906101000a900473ffffffffffffffffffffffffffffffffffffffff169050919050565b6000600760009054906101000a900473ffffffffffffffffffffffffffffffffffffffff16905081600760006101000a81548173ffffffffffffffffffffffffffffffffffffffff021916908373ffffffffffffffffffffffffffffffffffffffff1602179055508173ffffffffffffffffffffffffffffffffffffffff168173ffffffffffffffffffffffffffffffffffffffff167f8be0079c531659141344cd1fd0a4f28419497f9722a3daafe3b4186f6b6457e060405160405180910390a35050565b8173ffffffffffffffffffffffffffffffffffffffff168373ffffffffffffffffffffffffffffffffffffffff1603611a01576040517f08c379a00000000000000000000000000000000000000000000000000000000081526004016119f89061326a565b60405180910390fd5b80600560008573ffffffffffffffffffffffffffffffffffffffff1673ffffffffffffffffffffffffffffffffffffffff16815260200190815260200160002060008473ffffffffffffffffffffffffffffffffffffffff1673ffffffffffffffffffffffffffffffffffffffff16815260200190815260200160002060006101000a81548160ff0219169083151502179055508173ffffffffffffffffffffffffffffffffffffffff168373ffffffffffffffffffffffffffffffffffffffff167f17307eab39ab6107e8899845ad3d59bd9653f200f220920489ca2b5937696c3183604051611af291906120f8565b60405180910390a3505050565b611b0a84848461121b565b611b1684848484611e9a565b611b55576040517f08c379a0000000000000000000000000000000000000000000000000000000008152600401611b4c906132fc565b60405180910390fd5b50505050565b606060405180602001604052806000815250905090565b6060611b7d82610ffc565b6000611b87611b5b565b90506000815111611ba75760405180602001604052806000815250611bd2565b80611bb184611538565b604051602001611bc2929190612be0565b6040516020818303038152906040525b915050919050565b60008073ffffffffffffffffffffffffffffffffffffffff16611bfc83611890565b73ffffffffffffffffffffffffffffffffffffffff1614159050919050565b6001811115611d3b57600073ffffffffffffffffffffffffffffffffffffffff168473ffffffffffffffffffffffffffffffffffffffff1614611caf5780600360008673ffffffffffffffffffffffffffffffffffffffff1673ffffffffffffffffffffffffffffffffffffffff1681526020019081526020016000206000828254611ca7919061334b565b925050819055505b600073ffffffffffffffffffffffffffffffffffffffff168373ffffffffffffffffffffffffffffffffffffffff1614611d3a5780600360008573ffffffffffffffffffffffffffffffffffffffff1673ffffffffffffffffffffffffffffffffffffffff1681526020019081526020016000206000828254611d32919061337f565b925050819055505b5b50505050565b50505050565b600080600090507a184f03e93ff9f4daa797ed6e38ed64bf6a1f0100000000000000008310611da5577a184f03e93ff9f4daa797ed6e38ed64bf6a1f0100000000000000008381611d9b57611d9a612e26565b5b0492506040810190505b6d04ee2d6d415b85acef81000000008310611de2576d04ee2d6d415b85acef81000000008381611dd857611dd7612e26565b5b0492506020810190505b662386f26fc100008310611e1157662386f26fc100008381611e0757611e06612e26565b5b0492506010810190505b6305f5e1008310611e3a576305f5e1008381611e3057611e2f612e26565b5b0492506008810190505b6127108310611e5f576127108381611e5557611e54612e26565b5b0492506004810190505b60648310611e825760648381611e7857611e77612e26565b5b0492506002810190505b600a8310611e91576001810190505b80915050919050565b6000611ebb8473ffffffffffffffffffffffffffffffffffffffff16612021565b15612014578373ffffffffffffffffffffffffffffffffffffffff1663150b7a02611ee4611047565b8786866040518563ffffffff1660e01b8152600401611f069493929190613408565b6020604051808303816000875af1925050508015611f4257506040513d601f19601f82011682018060405250810190611f3f9190613469565b60015b611fc4573d8060008114611f72576040519150601f19603f3d011682016040523d82523d6000602084013e611f77565b606091505b506000815103611fbc576040517f08c379a0000000000000000000000000000000000000000000000000000000008152600401611fb3906132fc565b60405180910390fd5b805181602001fd5b63150b7a0260e01b7bffffffffffffffffffffffffffffffffffffffffffffffffffffffff1916817bffffffffffffffffffffffffffffffffffffffffffffffffffffffff191614915050612019565b600190505b949350505050565b6000808273ffffffffffffffffffffffffffffffffffffffff163b119050919050565b6000604051905090565b600080fd5b600080fd5b60007fffffffff0000000000000000000000000000000000000000000000000000000082169050919050565b61208d81612058565b811461209857600080fd5b50565b6000813590506120aa81612084565b92915050565b6000602082840312156120c6576120c561204e565b5b60006120d48482850161209b565b91505092915050565b60008115159050919050565b6120f2816120dd565b82525050565b600060208201905061210d60008301846120e9565b92915050565b600081519050919050565b600082825260208201905092915050565b60005b8381101561214d578082015181840152602081019050612132565b60008484015250505050565b6000601f19601f8301169050919050565b600061217582612113565b61217f818561211e565b935061218f81856020860161212f565b61219881612159565b840191505092915050565b600060208201905081810360008301526121bd818461216a565b905092915050565b6000819050919050565b6121d8816121c5565b81146121e357600080fd5b50565b6000813590506121f5816121cf565b92915050565b6000602082840312156122115761221061204e565b5b600061221f848285016121e6565b91505092915050565b600073ffffffffffffffffffffffffffffffffffffffff82169050919050565b600061225382612228565b9050919050565b61226381612248565b82525050565b600060208201905061227e600083018461225a565b92915050565b61228d81612248565b811461229857600080fd5b50565b6000813590506122aa81612284565b92915050565b600080604083850312156122c7576122c661204e565b5b60006122d58582860161229b565b92505060206122e6858286016121e6565b9150509250929050565b6122f9816121c5565b82525050565b600060208201905061231460008301846122f0565b92915050565b6000602082840312156123305761232f61204e565b5b600061233e8482850161229b565b91505092915050565b6000819050919050565b600061236c61236761236284612228565b612347565b612228565b9050919050565b600061237e82612351565b9050919050565b600061239082612373565b9050919050565b6123a081612385565b82525050565b60006020820190506123bb6000830184612397565b92915050565b6000806000606084860312156123da576123d961204e565b5b60006123e88682870161229b565b93505060206123f98682870161229b565b925050604061240a868287016121e6565b9150509250925092565b61241d816120dd565b811461242857600080fd5b50565b60008135905061243a81612414565b92915050565b600080604083850312156124575761245661204e565b5b60006124658582860161229b565b92505060206124768582860161242b565b9150509250929050565b600080fd5b600080fd5b7f4e487b7100000000000000000000000000000000000000000000000000000000600052604160045260246000fd5b6124c282612159565b810181811067ffffffffffffffff821117156124e1576124e061248a565b5b80604052505050565b60006124f4612044565b905061250082826124b9565b919050565b600067ffffffffffffffff8211156125205761251f61248a565b5b61252982612159565b9050602081019050919050565b82818337600083830152505050565b600061255861255384612505565b6124ea565b90508281526020810184848401111561257457612573612485565b5b61257f848285612536565b509392505050565b600082601f83011261259c5761259b612480565b5b81356125ac848260208601612545565b91505092915050565b600080600080608085870312156125cf576125ce61204e565b5b60006125dd8782880161229b565b94505060206125ee8782880161229b565b93505060406125ff878288016121e6565b925050606085013567ffffffffffffffff8111156126205761261f612053565b5b61262c87828801612587565b91505092959194509250565b6000806040838503121561264f5761264e61204e565b5b600061265d8582860161229b565b925050602061266e8582860161229b565b9150509250929050565b7f4e487b7100000000000000000000000000000000000000000000000000000000600052602260045260246000fd5b600060028204905060018216806126bf57607f821691505b6020821081036126d2576126d1612678565b5b50919050565b7f4552433732313a20617070726f76616c20746f2063757272656e74206f776e6560008201527f7200000000000000000000000000000000000000000000000000000000000000602082015250565b600061273460218361211e565b915061273f826126d8565b604082019050919050565b6000602082019050818103600083015261276381612727565b9050919050565b7f4552433732313a20617070726f76652063616c6c6572206973206e6f7420746f60008201527f6b656e206f776e6572206f7220617070726f76656420666f7220616c6c000000602082015250565b60006127c6603d8361211e565b91506127d18261276a565b604082019050919050565b600060208201905081810360008301526127f5816127b9565b9050919050565b7f496e76616c696420746f6b656e41646472657373000000000000000000000000600082015250565b600061283260148361211e565b915061283d826127fc565b602082019050919050565b6000602082019050818103600083015261286181612825565b9050919050565b7f4552433732313a2063616c6c6572206973206e6f7420746f6b656e206f776e6560008201527f72206f7220617070726f76656400000000000000000000000000000000000000602082015250565b60006128c4602d8361211e565b91506128cf82612868565b604082019050919050565b600060208201905081810360008301526128f3816128b7565b9050919050565b600081519050612909816121cf565b92915050565b6000602082840312156129255761292461204e565b5b6000612933848285016128fa565b91505092915050565b6000606082019050612951600083018661225a565b61295e602083018561225a565b61296b60408301846122f0565b949350505050565b60008151905061298281612414565b92915050565b60006020828403121561299e5761299d61204e565b5b60006129ac84828501612973565b91505092915050565b600081905092915050565b60008190508160005260206000209050919050565b600081546129e2816126a7565b6129ec81866129b5565b94506001821660008114612a075760018114612a1c57612a4f565b60ff1983168652811515820286019350612a4f565b612a25856129c0565b60005b83811015612a4757815481890152600182019150602081019050612a28565b838801955050505b50505092915050565b6000612a6382612113565b612a6d81856129b5565b9350612a7d81856020860161212f565b80840191505092915050565b7f2e6a736f6e000000000000000000000000000000000000000000000000000000815250565b6000612abb82856129d5565b9150612ac78284612a58565b9150612ad282612a89565b6005820191508190509392505050565b7f4552433732313a20696e76616c696420746f6b656e2049440000000000000000600082015250565b6000612b1860188361211e565b9150612b2382612ae2565b602082019050919050565b60006020820190508181036000830152612b4781612b0b565b9050919050565b7f4552433732313a2061646472657373207a65726f206973206e6f74206120766160008201527f6c6964206f776e65720000000000000000000000000000000000000000000000602082015250565b6000612baa60298361211e565b9150612bb582612b4e565b604082019050919050565b60006020820190508181036000830152612bd981612b9d565b9050919050565b6000612bec8285612a58565b9150612bf88284612a58565b91508190509392505050565b7f4f776e61626c653a206e6577206f776e657220697320746865207a65726f206160008201527f6464726573730000000000000000000000000000000000000000000000000000602082015250565b6000612c6060268361211e565b9150612c6b82612c04565b604082019050919050565b60006020820190508181036000830152612c8f81612c53565b9050919050565b7f4f776e61626c653a2063616c6c6572206973206e6f7420746865206f776e6572600082015250565b6000612ccc60208361211e565b9150612cd782612c96565b602082019050919050565b60006020820190508181036000830152612cfb81612cbf565b9050919050565b7f4552433732313a207472616e736665722066726f6d20696e636f72726563742060008201527f6f776e6572000000000000000000000000000000000000000000000000000000602082015250565b6000612d5e60258361211e565b9150612d6982612d02565b604082019050919050565b60006020820190508181036000830152612d8d81612d51565b9050919050565b7f4552433732313a207472616e7366657220746f20746865207a65726f2061646460008201527f7265737300000000000000000000000000000000000000000000000000000000602082015250565b6000612df060248361211e565b9150612dfb82612d94565b604082019050919050565b60006020820190508181036000830152612e1f81612de3565b9050919050565b7f4e487b7100000000000000000000000000000000000000000000000000000000600052601260045260246000fd5b7f4552433732313a206d696e7420746f20746865207a65726f2061646472657373600082015250565b6000612e8b60208361211e565b9150612e9682612e55565b602082019050919050565b60006020820190508181036000830152612eba81612e7e565b9050919050565b7f4552433732313a20746f6b656e20616c7265616479206d696e74656400000000600082015250565b6000612ef7601c8361211e565b9150612f0282612ec1565b602082019050919050565b60006020820190508181036000830152612f2681612eea565b9050919050565b7f45524337323155524953746f726167653a2055524920736574206f66206e6f6e60008201527f6578697374656e7420746f6b656e000000000000000000000000000000000000602082015250565b6000612f89602e8361211e565b9150612f9482612f2d565b604082019050919050565b60006020820190508181036000830152612fb881612f7c565b9050919050565b60006020601f8301049050919050565b600082821b905092915050565b60006008830261300c7fffffffffffffffffffffffffffffffffffffffffffffffffffffffffffffffff82612fcf565b6130168683612fcf565b95508019841693508086168417925050509392505050565b600061304961304461303f846121c5565b612347565b6121c5565b9050919050565b6000819050919050565b6130638361302e565b61307761306f82613050565b848454612fdc565b825550505050565b600090565b61308c61307f565b61309781848461305a565b505050565b5b818110156130bb576130b0600082613084565b60018101905061309d565b5050565b601f821115613100576130d1816129c0565b6130da84612fbf565b810160208510156130e9578190505b6130fd6130f585612fbf565b83018261309c565b50505b505050565b600082821c905092915050565b600061312360001984600802613105565b1980831691505092915050565b600061313c8383613112565b9150826002028217905092915050565b61315582612113565b67ffffffffffffffff81111561316e5761316d61248a565b5b61317882546126a7565b6131838282856130bf565b600060209050601f8311600181146131b657600084156131a4578287015190505b6131ae8582613130565b865550613216565b601f1984166131c4866129c0565b60005b828110156131ec578489015182556001820191506020850194506020810190506131c7565b868310156132095784890151613205601f891682613112565b8355505b6001600288020188555050505b505050505050565b7f4552433732313a20617070726f766520746f2063616c6c657200000000000000600082015250565b600061325460198361211e565b915061325f8261321e565b602082019050919050565b6000602082019050818103600083015261328381613247565b9050919050565b7f4552433732313a207472616e7366657220746f206e6f6e20455243373231526560008201527f63656976657220696d706c656d656e7465720000000000000000000000000000602082015250565b60006132e660328361211e565b91506132f18261328a565b604082019050919050565b60006020820190508181036000830152613315816132d9565b9050919050565b7f4e487b7100000000000000000000000000000000000000000000000000000000600052601160045260246000fd5b6000613356826121c5565b9150613361836121c5565b92508282039050818111156133795761337861331c565b5b92915050565b600061338a826121c5565b9150613395836121c5565b92508282019050808211156133ad576133ac61331c565b5b92915050565b600081519050919050565b600082825260208201905092915050565b60006133da826133b3565b6133e481856133be565b93506133f481856020860161212f565b6133fd81612159565b840191505092915050565b600060808201905061341d600083018761225a565b61342a602083018661225a565b61343760408301856122f0565b818103606083015261344981846133cf565b905095945050505050565b60008151905061346381612084565b92915050565b60006020828403121561347f5761347e61204e565b5b600061348d84828501613454565b9150509291505056fea26469706673582212206db0fdedf067480ffc0b2d1400ab409bb107ebda6e38655ea4dca2fc3770d71764736f6c6343000811003368747470733a2f2f6577652d6d657461646174612e73332e61702d6e6f727468656173742d322e616d617a6f6e6177732e636f6d2f",
  "immutableReferences": {},
  "source": "// SPDX-License-Identifier: MIT\npragma solidity ^0.8.17;\n\nimport '@openzeppelin/contracts/token/ERC721/ERC721.sol';\nimport '@openzeppelin/contracts/utils/Counters.sol';\nimport '@openzeppelin/contracts/access/Ownable.sol';\nimport '@openzeppelin/contracts/token/ERC721/extensions/ERC721URIStorage.sol';\nimport '@openzeppelin/contracts/token/ERC20/IERC20.sol';\nimport '@openzeppelin/contracts/utils/Strings.sol';\n\n// import './EWEToken.sol';\n\ncontract EWENFT is ERC721URIStorage, Ownable {\n  using Counters for Counters.Counter;\n  Counters.Counter private _tokenIds;\n  string public baseTokenURI;\n  IERC20 token;\n  uint256 public nftPrice;\n\n  constructor() ERC721('EWENFT', 'EWENFT') {\n    nftPrice = 1;\n    baseTokenURI = 'https://ewe-metadata.s3.ap-northeast-2.amazonaws.com/';\n  }\n\n  function mintNFT(address recipient) public onlyOwner returns (uint256) {\n    require(token.balanceOf(recipient) > nftPrice);\n    token.transferFrom(recipient, msg.sender, nftPrice);\n    // uint256 currentAllowance = _allowances[sender][msg.sender];\n    // token.transfer(recipient,  nftPrice);\n\n    _tokenIds.increment();\n    uint256 newItemId = _tokenIds.current();\n    string memory tokenURI = string.concat(\n      baseTokenURI,\n      Strings.toString(newItemId),\n      '.json'\n    );\n    _mint(recipient, newItemId);\n    _setTokenURI(newItemId, tokenURI);\n\n    return newItemId;\n  }\n\n  function getPrice() public view returns (uint256) {\n    return nftPrice;\n  }\n\n  function getToken() public view returns (IERC20) {\n    return token;\n  }\n\n  function setToken(address tokenAddress) public onlyOwner returns (bool) {\n    require(tokenAddress != address(0x0), 'Invalid tokenAddress');\n    token = IERC20(tokenAddress);\n    return true;\n  }\n}\n",
  "sourcePath": "/Users/sdh/Study/BEB_07/projects/beb-07-second-EWE/contracts/contracts/EWENFT.sol",
  "compiler": {
    "name": "solc",
    "version": "0.8.17+commit.8df45f5f.Emscripten.clang"
  },
  "schemaVersion": "3.4.11",
  "updatedAt": "2023-01-04T06:24:01.864Z",
  "networkType": "ethereum",
  "devdoc": {
    "kind": "dev",
    "methods": {
      "approve(address,uint256)": {
        "details": "See {IERC721-approve}."
      },
      "balanceOf(address)": {
        "details": "See {IERC721-balanceOf}."
      },
      "getApproved(uint256)": {
        "details": "See {IERC721-getApproved}."
      },
      "isApprovedForAll(address,address)": {
        "details": "See {IERC721-isApprovedForAll}."
      },
      "name()": {
        "details": "See {IERC721Metadata-name}."
      },
      "owner()": {
        "details": "Returns the address of the current owner."
      },
      "ownerOf(uint256)": {
        "details": "See {IERC721-ownerOf}."
      },
      "renounceOwnership()": {
        "details": "Leaves the contract without owner. It will not be possible to call `onlyOwner` functions anymore. Can only be called by the current owner. NOTE: Renouncing ownership will leave the contract without an owner, thereby removing any functionality that is only available to the owner."
      },
      "safeTransferFrom(address,address,uint256)": {
        "details": "See {IERC721-safeTransferFrom}."
      },
      "safeTransferFrom(address,address,uint256,bytes)": {
        "details": "See {IERC721-safeTransferFrom}."
      },
      "setApprovalForAll(address,bool)": {
        "details": "See {IERC721-setApprovalForAll}."
      },
      "supportsInterface(bytes4)": {
        "details": "See {IERC165-supportsInterface}."
      },
      "symbol()": {
        "details": "See {IERC721Metadata-symbol}."
      },
      "tokenURI(uint256)": {
        "details": "See {IERC721Metadata-tokenURI}."
      },
      "transferFrom(address,address,uint256)": {
        "details": "See {IERC721-transferFrom}."
      },
      "transferOwnership(address)": {
        "details": "Transfers ownership of the contract to a new account (`newOwner`). Can only be called by the current owner."
      }
    },
    "version": 1
  },
  "userdoc": {
    "kind": "user",
    "methods": {},
    "version": 1
  }
}