{
  "contractName": "EWEToken",
  "abi": [
    {
      "inputs": [
        {
          "internalType": "string",
          "name": "getName",
          "type": "string"
        },
        {
          "internalType": "string",
          "name": "getSymbol",
          "type": "string"
        }
      ],
      "stateMutability": "nonpayable",
      "type": "constructor"
    },
    {
      "anonymous": false,
      "inputs": [
        {
          "indexed": true,
          "internalType": "address",
          "name": "owner",
          "type": "address"
        },
        {
          "indexed": true,
          "internalType": "address",
          "name": "spender",
          "type": "address"
        },
        {
          "indexed": false,
          "internalType": "uint256",
          "name": "oldAmount",
          "type": "uint256"
        },
        {
          "indexed": false,
          "internalType": "uint256",
          "name": "amount",
          "type": "uint256"
        }
      ],
      "name": "Approval",
      "type": "event"
    },
    {
      "anonymous": false,
      "inputs": [
        {
          "indexed": true,
          "internalType": "address",
          "name": "from",
          "type": "address"
        },
        {
          "indexed": true,
          "internalType": "address",
          "name": "to",
          "type": "address"
        },
        {
          "indexed": false,
          "internalType": "uint256",
          "name": "amount",
          "type": "uint256"
        }
      ],
      "name": "Transfer",
      "type": "event"
    },
    {
      "anonymous": false,
      "inputs": [
        {
          "indexed": true,
          "internalType": "address",
          "name": "spender",
          "type": "address"
        },
        {
          "indexed": true,
          "internalType": "address",
          "name": "from",
          "type": "address"
        },
        {
          "indexed": true,
          "internalType": "address",
          "name": "to",
          "type": "address"
        },
        {
          "indexed": false,
          "internalType": "uint256",
          "name": "amount",
          "type": "uint256"
        }
      ],
      "name": "Transfer",
      "type": "event"
    },
    {
      "inputs": [
        {
          "internalType": "address",
          "name": "",
          "type": "address"
        },
        {
          "internalType": "address",
          "name": "",
          "type": "address"
        }
      ],
      "name": "_allowances",
      "outputs": [
        {
          "internalType": "uint256",
          "name": "",
          "type": "uint256"
        }
      ],
      "stateMutability": "view",
      "type": "function",
      "constant": true
    },
    {
      "inputs": [],
      "name": "_decimals",
      "outputs": [
        {
          "internalType": "uint8",
          "name": "",
          "type": "uint8"
        }
      ],
      "stateMutability": "view",
      "type": "function",
      "constant": true
    },
    {
      "inputs": [],
      "name": "_name",
      "outputs": [
        {
          "internalType": "string",
          "name": "",
          "type": "string"
        }
      ],
      "stateMutability": "view",
      "type": "function",
      "constant": true
    },
    {
      "inputs": [],
      "name": "_symbol",
      "outputs": [
        {
          "internalType": "string",
          "name": "",
          "type": "string"
        }
      ],
      "stateMutability": "view",
      "type": "function",
      "constant": true
    },
    {
      "inputs": [],
      "name": "_totalSupply",
      "outputs": [
        {
          "internalType": "uint256",
          "name": "",
          "type": "uint256"
        }
      ],
      "stateMutability": "view",
      "type": "function",
      "constant": true
    },
    {
      "inputs": [],
      "name": "name",
      "outputs": [
        {
          "internalType": "string",
          "name": "",
          "type": "string"
        }
      ],
      "stateMutability": "view",
      "type": "function",
      "constant": true
    },
    {
      "inputs": [],
      "name": "symbol",
      "outputs": [
        {
          "internalType": "string",
          "name": "",
          "type": "string"
        }
      ],
      "stateMutability": "view",
      "type": "function",
      "constant": true
    },
    {
      "inputs": [],
      "name": "decimals",
      "outputs": [
        {
          "internalType": "uint8",
          "name": "",
          "type": "uint8"
        }
      ],
      "stateMutability": "view",
      "type": "function",
      "constant": true
    },
    {
      "inputs": [],
      "name": "totalSupply",
      "outputs": [
        {
          "internalType": "uint256",
          "name": "",
          "type": "uint256"
        }
      ],
      "stateMutability": "view",
      "type": "function",
      "constant": true
    },
    {
      "inputs": [
        {
          "internalType": "address",
          "name": "account",
          "type": "address"
        }
      ],
      "name": "balanceOf",
      "outputs": [
        {
          "internalType": "uint256",
          "name": "",
          "type": "uint256"
        }
      ],
      "stateMutability": "view",
      "type": "function",
      "constant": true
    },
    {
      "inputs": [
        {
          "internalType": "address",
          "name": "recipient",
          "type": "address"
        },
        {
          "internalType": "uint256",
          "name": "amount",
          "type": "uint256"
        }
      ],
      "name": "transfer",
      "outputs": [
        {
          "internalType": "bool",
          "name": "",
          "type": "bool"
        }
      ],
      "stateMutability": "nonpayable",
      "type": "function"
    },
    {
      "inputs": [
        {
          "internalType": "address",
          "name": "owner",
          "type": "address"
        },
        {
          "internalType": "address",
          "name": "spender",
          "type": "address"
        }
      ],
      "name": "allowance",
      "outputs": [
        {
          "internalType": "uint256",
          "name": "",
          "type": "uint256"
        }
      ],
      "stateMutability": "view",
      "type": "function",
      "constant": true
    },
    {
      "inputs": [
        {
          "internalType": "address",
          "name": "spender",
          "type": "address"
        },
        {
          "internalType": "uint256",
          "name": "amount",
          "type": "uint256"
        }
      ],
      "name": "approve",
      "outputs": [
        {
          "internalType": "bool",
          "name": "",
          "type": "bool"
        }
      ],
      "stateMutability": "nonpayable",
      "type": "function"
    },
    {
      "inputs": [
        {
          "internalType": "address",
          "name": "sender",
          "type": "address"
        },
        {
          "internalType": "address",
          "name": "recipient",
          "type": "address"
        },
        {
          "internalType": "uint256",
          "name": "amount",
          "type": "uint256"
        }
      ],
      "name": "transferFrom",
      "outputs": [
        {
          "internalType": "bool",
          "name": "",
          "type": "bool"
        }
      ],
      "stateMutability": "nonpayable",
      "type": "function"
    }
  ],
  "bytecode": "0x6080604052670de0b6b3a76400006006553480156200001d57600080fd5b5060405162001c6638038062001c6683398181016040528101906200004391906200027d565b81600390816200005491906200054d565b5080600490816200006691906200054d565b506012600560006101000a81548160ff021916908360ff1602179055506006546305f5e10062000097919062000663565b6002819055506002546000803373ffffffffffffffffffffffffffffffffffffffff1673ffffffffffffffffffffffffffffffffffffffff168152602001908152602001600020819055505050620006ae565b6000604051905090565b600080fd5b600080fd5b600080fd5b600080fd5b6000601f19601f8301169050919050565b7f4e487b7100000000000000000000000000000000000000000000000000000000600052604160045260246000fd5b620001538262000108565b810181811067ffffffffffffffff8211171562000175576200017462000119565b5b80604052505050565b60006200018a620000ea565b905062000198828262000148565b919050565b600067ffffffffffffffff821115620001bb57620001ba62000119565b5b620001c68262000108565b9050602081019050919050565b60005b83811015620001f3578082015181840152602081019050620001d6565b60008484015250505050565b60006200021662000210846200019d565b6200017e565b90508281526020810184848401111562000235576200023462000103565b5b62000242848285620001d3565b509392505050565b600082601f830112620002625762000261620000fe565b5b815162000274848260208601620001ff565b91505092915050565b60008060408385031215620002975762000296620000f4565b5b600083015167ffffffffffffffff811115620002b857620002b7620000f9565b5b620002c6858286016200024a565b925050602083015167ffffffffffffffff811115620002ea57620002e9620000f9565b5b620002f8858286016200024a565b9150509250929050565b600081519050919050565b7f4e487b7100000000000000000000000000000000000000000000000000000000600052602260045260246000fd5b600060028204905060018216806200035557607f821691505b6020821081036200036b576200036a6200030d565b5b50919050565b60008190508160005260206000209050919050565b60006020601f8301049050919050565b600082821b905092915050565b600060088302620003d57fffffffffffffffffffffffffffffffffffffffffffffffffffffffffffffffff8262000396565b620003e1868362000396565b95508019841693508086168417925050509392505050565b6000819050919050565b6000819050919050565b60006200042e620004286200042284620003f9565b62000403565b620003f9565b9050919050565b6000819050919050565b6200044a836200040d565b62000462620004598262000435565b848454620003a3565b825550505050565b600090565b620004796200046a565b620004868184846200043f565b505050565b5b81811015620004ae57620004a26000826200046f565b6001810190506200048c565b5050565b601f821115620004fd57620004c78162000371565b620004d28462000386565b81016020851015620004e2578190505b620004fa620004f18562000386565b8301826200048b565b50505b505050565b600082821c905092915050565b6000620005226000198460080262000502565b1980831691505092915050565b60006200053d83836200050f565b9150826002028217905092915050565b620005588262000302565b67ffffffffffffffff81111562000574576200057362000119565b5b6200058082546200033c565b6200058d828285620004b2565b600060209050601f831160018114620005c55760008415620005b0578287015190505b620005bc85826200052f565b8655506200062c565b601f198416620005d58662000371565b60005b82811015620005ff57848901518255600182019150602085019450602081019050620005d8565b868310156200061f57848901516200061b601f8916826200050f565b8355505b6001600288020188555050505b505050505050565b7f4e487b7100000000000000000000000000000000000000000000000000000000600052601160045260246000fd5b60006200067082620003f9565b91506200067d83620003f9565b92508282026200068d81620003f9565b91508282048414831517620006a757620006a662000634565b5b5092915050565b6115a880620006be6000396000f3fe608060405234801561001057600080fd5b50600436106100ea5760003560e01c80633eaaf86b1161008c578063a9059cbb11610066578063a9059cbb14610263578063b09f126614610293578063d28d8852146102b1578063dd62ed3e146102cf576100ea565b80633eaaf86b146101f757806370a082311461021557806395d89b4114610245576100ea565b806318160ddd116100c857806318160ddd1461016d57806323b872dd1461018b578063313ce567146101bb57806332424aa3146101d9576100ea565b8063024c2ddd146100ef57806306fdde031461011f578063095ea7b31461013d575b600080fd5b61010960048036038101906101049190610daf565b6102ff565b6040516101169190610e08565b60405180910390f35b610127610324565b6040516101349190610eb3565b60405180910390f35b61015760048036038101906101529190610f01565b6103b6565b6040516101649190610f5c565b60405180910390f35b6101756104d0565b6040516101829190610e08565b60405180910390f35b6101a560048036038101906101a09190610f77565b6104da565b6040516101b29190610f5c565b60405180910390f35b6101c361064a565b6040516101d09190610fe6565b60405180910390f35b6101e1610661565b6040516101ee9190610fe6565b60405180910390f35b6101ff610674565b60405161020c9190610e08565b60405180910390f35b61022f600480360381019061022a9190611001565b61067a565b60405161023c9190610e08565b60405180910390f35b61024d6106c2565b60405161025a9190610eb3565b60405180910390f35b61027d60048036038101906102789190610f01565b610754565b60405161028a9190610f5c565b60405180910390f35b61029b6107d0565b6040516102a89190610eb3565b60405180910390f35b6102b961085e565b6040516102c69190610eb3565b60405180910390f35b6102e960048036038101906102e49190610daf565b6108ec565b6040516102f69190610e08565b60405180910390f35b6001602052816000526040600020602052806000526040600020600091509150505481565b6060600380546103339061105d565b80601f016020809104026020016040519081016040528092919081815260200182805461035f9061105d565b80156103ac5780601f10610381576101008083540402835291602001916103ac565b820191906000526020600020905b81548152906001019060200180831161038f57829003601f168201915b5050505050905090565b600080600160003373ffffffffffffffffffffffffffffffffffffffff1673ffffffffffffffffffffffffffffffffffffffff16815260200190815260200160002060008573ffffffffffffffffffffffffffffffffffffffff1673ffffffffffffffffffffffffffffffffffffffff168152602001908152602001600020549050826000803373ffffffffffffffffffffffffffffffffffffffff1673ffffffffffffffffffffffffffffffffffffffff1681526020019081526020016000205410156104b9576040517f08c379a00000000000000000000000000000000000000000000000000000000081526004016104b090611126565b60405180910390fd5b6104c533858386610973565b600191505092915050565b6000600254905090565b60006104e7848484610b3f565b8273ffffffffffffffffffffffffffffffffffffffff168473ffffffffffffffffffffffffffffffffffffffff163373ffffffffffffffffffffffffffffffffffffffff167fd1398bee19313d6bf672ccb116e51f4a1a947e91c757907f51fbb5b5e56c698f8560405161055b9190610e08565b60405180910390a46000600160008673ffffffffffffffffffffffffffffffffffffffff1673ffffffffffffffffffffffffffffffffffffffff16815260200190815260200160002060003373ffffffffffffffffffffffffffffffffffffffff1673ffffffffffffffffffffffffffffffffffffffff16815260200190815260200160002054905082811015610627576040517f08c379a000000000000000000000000000000000000000000000000000000000815260040161061e906111b8565b60405180910390fd5b61063e85338386856106399190611207565b610973565b60019150509392505050565b6000600560009054906101000a900460ff16905090565b600560009054906101000a900460ff1681565b60025481565b60008060008373ffffffffffffffffffffffffffffffffffffffff1673ffffffffffffffffffffffffffffffffffffffff168152602001908152602001600020549050919050565b6060600480546106d19061105d565b80601f01602080910402602001604051908101604052809291908181526020018280546106fd9061105d565b801561074a5780601f1061071f5761010080835404028352916020019161074a565b820191906000526020600020905b81548152906001019060200180831161072d57829003601f168201915b5050505050905090565b6000610761338484610b3f565b8273ffffffffffffffffffffffffffffffffffffffff163373ffffffffffffffffffffffffffffffffffffffff167fddf252ad1be2c89b69c2b068fc378daa952ba7f163c4a11628f55a4df523b3ef846040516107be9190610e08565b60405180910390a36001905092915050565b600480546107dd9061105d565b80601f01602080910402602001604051908101604052809291908181526020018280546108099061105d565b80156108565780601f1061082b57610100808354040283529160200191610856565b820191906000526020600020905b81548152906001019060200180831161083957829003601f168201915b505050505081565b6003805461086b9061105d565b80601f01602080910402602001604051908101604052809291908181526020018280546108979061105d565b80156108e45780601f106108b9576101008083540402835291602001916108e4565b820191906000526020600020905b8154815290600101906020018083116108c757829003601f168201915b505050505081565b6000600160008473ffffffffffffffffffffffffffffffffffffffff1673ffffffffffffffffffffffffffffffffffffffff16815260200190815260200160002060008373ffffffffffffffffffffffffffffffffffffffff1673ffffffffffffffffffffffffffffffffffffffff16815260200190815260200160002054905092915050565b600073ffffffffffffffffffffffffffffffffffffffff168473ffffffffffffffffffffffffffffffffffffffff16036109e2576040517f08c379a00000000000000000000000000000000000000000000000000000000081526004016109d9906112ad565b60405180910390fd5b600073ffffffffffffffffffffffffffffffffffffffff168373ffffffffffffffffffffffffffffffffffffffff1603610a51576040517f08c379a0000000000000000000000000000000000000000000000000000000008152600401610a489061133f565b60405180910390fd5b80600160008673ffffffffffffffffffffffffffffffffffffffff1673ffffffffffffffffffffffffffffffffffffffff16815260200190815260200160002060008573ffffffffffffffffffffffffffffffffffffffff1673ffffffffffffffffffffffffffffffffffffffff168152602001908152602001600020819055508273ffffffffffffffffffffffffffffffffffffffff168473ffffffffffffffffffffffffffffffffffffffff167fb3fd5071835887567a0671151121894ddccc2842f1d10bedad13e0d17cace9a78484604051610b3192919061135f565b60405180910390a350505050565b600073ffffffffffffffffffffffffffffffffffffffff168373ffffffffffffffffffffffffffffffffffffffff1603610bae576040517f08c379a0000000000000000000000000000000000000000000000000000000008152600401610ba5906113fa565b60405180910390fd5b600073ffffffffffffffffffffffffffffffffffffffff168273ffffffffffffffffffffffffffffffffffffffff1603610c1d576040517f08c379a0000000000000000000000000000000000000000000000000000000008152600401610c149061148c565b60405180910390fd5b60008060008573ffffffffffffffffffffffffffffffffffffffff1673ffffffffffffffffffffffffffffffffffffffff16815260200190815260200160002054905081811015610ca3576040517f08c379a0000000000000000000000000000000000000000000000000000000008152600401610c9a9061151e565b60405180910390fd5b8181610caf9190611207565b6000808673ffffffffffffffffffffffffffffffffffffffff1673ffffffffffffffffffffffffffffffffffffffff16815260200190815260200160002081905550816000808573ffffffffffffffffffffffffffffffffffffffff1673ffffffffffffffffffffffffffffffffffffffff1681526020019081526020016000206000828254610d3f919061153e565b9250508190555050505050565b600080fd5b600073ffffffffffffffffffffffffffffffffffffffff82169050919050565b6000610d7c82610d51565b9050919050565b610d8c81610d71565b8114610d9757600080fd5b50565b600081359050610da981610d83565b92915050565b60008060408385031215610dc657610dc5610d4c565b5b6000610dd485828601610d9a565b9250506020610de585828601610d9a565b9150509250929050565b6000819050919050565b610e0281610def565b82525050565b6000602082019050610e1d6000830184610df9565b92915050565b600081519050919050565b600082825260208201905092915050565b60005b83811015610e5d578082015181840152602081019050610e42565b60008484015250505050565b6000601f19601f8301169050919050565b6000610e8582610e23565b610e8f8185610e2e565b9350610e9f818560208601610e3f565b610ea881610e69565b840191505092915050565b60006020820190508181036000830152610ecd8184610e7a565b905092915050565b610ede81610def565b8114610ee957600080fd5b50565b600081359050610efb81610ed5565b92915050565b60008060408385031215610f1857610f17610d4c565b5b6000610f2685828601610d9a565b9250506020610f3785828601610eec565b9150509250929050565b60008115159050919050565b610f5681610f41565b82525050565b6000602082019050610f716000830184610f4d565b92915050565b600080600060608486031215610f9057610f8f610d4c565b5b6000610f9e86828701610d9a565b9350506020610faf86828701610d9a565b9250506040610fc086828701610eec565b9150509250925092565b600060ff82169050919050565b610fe081610fca565b82525050565b6000602082019050610ffb6000830184610fd7565b92915050565b60006020828403121561101757611016610d4c565b5b600061102584828501610d9a565b91505092915050565b7f4e487b7100000000000000000000000000000000000000000000000000000000600052602260045260246000fd5b6000600282049050600182168061107557607f821691505b6020821081036110885761108761102e565b5b50919050565b7f45524332303a2054686520616d6f756e7420746f206265207472616e7366657260008201527f72656420657863656564732074686520616d6f756e74206f6620746f6b656e7360208201527f2068656c6420627920746865206f776e65722e00000000000000000000000000604082015250565b6000611110605383610e2e565b915061111b8261108e565b606082019050919050565b6000602082019050818103600083015261113f81611103565b9050919050565b7f45524332303a207472616e7366657220616d6f756e742065786365656473206160008201527f6c6c6f77616e6365000000000000000000000000000000000000000000000000602082015250565b60006111a2602883610e2e565b91506111ad82611146565b604082019050919050565b600060208201905081810360008301526111d181611195565b9050919050565b7f4e487b7100000000000000000000000000000000000000000000000000000000600052601160045260246000fd5b600061121282610def565b915061121d83610def565b9250828203905081811115611235576112346111d8565b5b92915050565b7f45524332303a20617070726f76652066726f6d20746865207a65726f2061646460008201527f7265737300000000000000000000000000000000000000000000000000000000602082015250565b6000611297602483610e2e565b91506112a28261123b565b604082019050919050565b600060208201905081810360008301526112c68161128a565b9050919050565b7f45524332303a20617070726f766520746f20746865207a65726f20616464726560008201527f7373000000000000000000000000000000000000000000000000000000000000602082015250565b6000611329602283610e2e565b9150611334826112cd565b604082019050919050565b600060208201905081810360008301526113588161131c565b9050919050565b60006040820190506113746000830185610df9565b6113816020830184610df9565b9392505050565b7f45524332303a207472616e736665722066726f6d20746865207a65726f20616460008201527f6472657373000000000000000000000000000000000000000000000000000000602082015250565b60006113e4602583610e2e565b91506113ef82611388565b604082019050919050565b60006020820190508181036000830152611413816113d7565b9050919050565b7f45524332303a207472616e7366657220746f20746865207a65726f206164647260008201527f6573730000000000000000000000000000000000000000000000000000000000602082015250565b6000611476602383610e2e565b91506114818261141a565b604082019050919050565b600060208201905081810360008301526114a581611469565b9050919050565b7f45524332303a207472616e7366657220616d6f756e742065786365656473206260008201527f616c616e63650000000000000000000000000000000000000000000000000000602082015250565b6000611508602683610e2e565b9150611513826114ac565b604082019050919050565b60006020820190508181036000830152611537816114fb565b9050919050565b600061154982610def565b915061155483610def565b925082820190508082111561156c5761156b6111d8565b5b9291505056fea2646970667358221220e55caf3ecdee55fa14786d45e0b34a3eed4efd99fea895ec73645672030e89d664736f6c63430008110033",
  "immutableReferences": {},
  "source": "// SPDX-License-Identifier: GPL-3.0\npragma solidity ^0.8.17;\n\ninterface ERC20Interface {\n  function totalSupply() external view returns (uint256);\n\n  function balanceOf(address account) external view returns (uint256);\n\n  function transfer(address recipient, uint256 amount) external returns (bool);\n\n  function approve(address spender, uint256 amount) external returns (bool);\n\n  function allowance(address owner, address spender)\n    external\n    view\n    returns (uint256);\n\n  function transferFrom(\n    address spender,\n    address recipient,\n    uint256 amount\n  ) external returns (bool);\n\n  event Transfer(address indexed from, address indexed to, uint256 amount);\n  event Transfer(\n    address indexed spender,\n    address indexed from,\n    address indexed to,\n    uint256 amount\n  );\n  event Approval(\n    address indexed owner,\n    address indexed spender,\n    uint256 oldAmount,\n    uint256 amount\n  );\n}\n\ncontract EWEToken is ERC20Interface {\n  mapping(address => uint256) private _balances;\n  mapping(address => mapping(address => uint256)) public _allowances;\n\n  uint256 public _totalSupply;\n  string public _name;\n  string public _symbol;\n  uint8 public _decimals;\n  uint256 private E18 = 1000000000000000000;\n\n  constructor(string memory getName, string memory getSymbol) {\n    _name = getName;\n    _symbol = getSymbol;\n    _decimals = 18;\n    _totalSupply = 100000000 * E18;\n    _balances[msg.sender] = _totalSupply; // \n  }\n\n  function name() public view returns (string memory) {\n    return _name;\n  }\n\n  function symbol() public view returns (string memory) {\n    return _symbol;\n  }\n\n  function decimals() public view returns (uint8) {\n    return _decimals;\n  }\n\n  function totalSupply() external view virtual override returns (uint256) {\n    return _totalSupply;\n  }\n\n  function balanceOf(address account)\n    external\n    view\n    virtual\n    override\n    returns (uint256)\n  {\n    return _balances[account];\n  }\n\n  function transfer(address recipient, uint256 amount)\n    public\n    virtual\n    override\n    returns (bool)\n  {\n    _transfer(msg.sender, recipient, amount);\n    emit Transfer(msg.sender, recipient, amount);\n    return true;\n  }\n\n  function allowance(address owner, address spender)\n    external\n    view\n    override\n    returns (uint256)\n  {\n    return _allowances[owner][spender];\n  }\n\n  function approve(address spender, uint256 amount)\n    external\n    virtual\n    override\n    returns (bool)\n  {\n    uint256 currentAllowance = _allowances[msg.sender][spender];\n    require(\n      _balances[msg.sender] >= amount,\n      'ERC20: The amount to be transferred exceeds the amount of tokens held by the owner.'\n    );\n    _approve(msg.sender, spender, currentAllowance, amount);\n    return true;\n  }\n\n  function transferFrom(\n    address sender,\n    address recipient,\n    uint256 amount\n  ) external virtual override returns (bool) {\n    _transfer(sender, recipient, amount);\n    emit Transfer(msg.sender, sender, recipient, amount);\n    uint256 currentAllowance = _allowances[sender][msg.sender];\n    require(\n      currentAllowance >= amount,\n      'ERC20: transfer amount exceeds allowance'\n    );\n    _approve(sender, msg.sender, currentAllowance, currentAllowance - amount);\n    return true;\n  }\n\n  function _transfer(\n    address sender,\n    address recipient,\n    uint256 amount\n  ) internal virtual {\n    require(sender != address(0), 'ERC20: transfer from the zero address');\n    require(recipient != address(0), 'ERC20: transfer to the zero address');\n    uint256 senderBalance = _balances[sender];\n    require(senderBalance >= amount, 'ERC20: transfer amount exceeds balance');\n    _balances[sender] = senderBalance - amount;\n    _balances[recipient] += amount;\n  }\n\n  function _approve(\n    address owner,\n    address spender,\n    uint256 currentAmount,\n    uint256 amount\n  ) internal virtual {\n    require(owner != address(0), 'ERC20: approve from the zero address');\n    require(spender != address(0), 'ERC20: approve to the zero address');\n    _allowances[owner][spender] = amount;\n    emit Approval(owner, spender, currentAmount, amount);\n  }\n}\n",
  "sourcePath": "/Users/sdh/Study/BEB_07/projects/beb-07-second-EWE/contracts/contracts/EWEToken.sol",
  "compiler": {
    "name": "solc",
    "version": "0.8.17+commit.8df45f5f.Emscripten.clang"
  },
  "schemaVersion": "3.4.11",
  "updatedAt": "2023-01-04T06:24:00.931Z",
  "networkType": "ethereum",
  "devdoc": {
    "kind": "dev",
    "methods": {},
    "version": 1
  },
  "userdoc": {
    "kind": "user",
    "methods": {},
    "version": 1
  }
}