{
  "contractName": "Mung",
  "abi": [
    {
      "inputs": [
        {
          "internalType": "string",
          "name": "_text",
          "type": "string"
        }
      ],
      "stateMutability": "nonpayable",
      "type": "constructor"
    },
    {
      "inputs": [],
      "name": "text",
      "outputs": [
        {
          "internalType": "string",
          "name": "",
          "type": "string"
        }
      ],
      "stateMutability": "view",
      "type": "function",
      "constant": true
    },
    {
      "inputs": [
        {
          "internalType": "string",
          "name": "_text",
          "type": "string"
        }
      ],
      "name": "setText",
      "outputs": [],
      "stateMutability": "nonpayable",
      "type": "function"
    },
    {
      "inputs": [],
      "name": "say",
      "outputs": [
        {
          "internalType": "string",
          "name": "",
          "type": "string"
        }
      ],
      "stateMutability": "view",
      "type": "function",
      "constant": true
    },
    {
      "inputs": [
        {
          "internalType": "uint256",
          "name": "a",
          "type": "uint256"
        }
      ],
      "name": "errorOccur",
      "outputs": [
        {
          "internalType": "uint256",
          "name": "",
          "type": "uint256"
        }
      ],
      "stateMutability": "pure",
      "type": "function",
      "constant": true
    }
  ],
  "bytecode": "0x60806040523480156200001157600080fd5b5060405162000e1f38038062000e1f8339818101604052810190620000379190620001e3565b80600090816200004891906200047f565b505062000566565b6000604051905090565b600080fd5b600080fd5b600080fd5b600080fd5b6000601f19601f8301169050919050565b7f4e487b7100000000000000000000000000000000000000000000000000000000600052604160045260246000fd5b620000b9826200006e565b810181811067ffffffffffffffff82111715620000db57620000da6200007f565b5b80604052505050565b6000620000f062000050565b9050620000fe8282620000ae565b919050565b600067ffffffffffffffff8211156200012157620001206200007f565b5b6200012c826200006e565b9050602081019050919050565b60005b83811015620001595780820151818401526020810190506200013c565b60008484015250505050565b60006200017c620001768462000103565b620000e4565b9050828152602081018484840111156200019b576200019a62000069565b5b620001a884828562000139565b509392505050565b600082601f830112620001c857620001c762000064565b5b8151620001da84826020860162000165565b91505092915050565b600060208284031215620001fc57620001fb6200005a565b5b600082015167ffffffffffffffff8111156200021d576200021c6200005f565b5b6200022b84828501620001b0565b91505092915050565b600081519050919050565b7f4e487b7100000000000000000000000000000000000000000000000000000000600052602260045260246000fd5b600060028204905060018216806200028757607f821691505b6020821081036200029d576200029c6200023f565b5b50919050565b60008190508160005260206000209050919050565b60006020601f8301049050919050565b600082821b905092915050565b600060088302620003077fffffffffffffffffffffffffffffffffffffffffffffffffffffffffffffffff82620002c8565b620003138683620002c8565b95508019841693508086168417925050509392505050565b6000819050919050565b6000819050919050565b6000620003606200035a62000354846200032b565b62000335565b6200032b565b9050919050565b6000819050919050565b6200037c836200033f565b620003946200038b8262000367565b848454620002d5565b825550505050565b600090565b620003ab6200039c565b620003b881848462000371565b505050565b5b81811015620003e057620003d4600082620003a1565b600181019050620003be565b5050565b601f8211156200042f57620003f981620002a3565b6200040484620002b8565b8101602085101562000414578190505b6200042c6200042385620002b8565b830182620003bd565b50505b505050565b600082821c905092915050565b6000620004546000198460080262000434565b1980831691505092915050565b60006200046f838362000441565b9150826002028217905092915050565b6200048a8262000234565b67ffffffffffffffff811115620004a657620004a56200007f565b5b620004b282546200026e565b620004bf828285620003e4565b600060209050601f831160018114620004f75760008415620004e2578287015190505b620004ee858262000461565b8655506200055e565b601f1984166200050786620002a3565b60005b8281101562000531578489015182556001820191506020850194506020810190506200050a565b868310156200055157848901516200054d601f89168262000441565b8355505b6001600288020188555050505b505050505050565b6108a980620005766000396000f3fe608060405234801561001057600080fd5b506004361061004c5760003560e01c80631f1bd692146100515780632404129d1461006f5780635d3a1f9d1461009f578063954ab4b2146100bb575b600080fd5b6100596100d9565b60405161006691906102e8565b60405180910390f35b61008960048036038101906100849190610354565b610167565b6040516100969190610390565b60405180910390f35b6100b960048036038101906100b491906104e0565b6101b3565b005b6100c36101c6565b6040516100d091906102e8565b60405180910390f35b600080546100e690610558565b80601f016020809104026020016040519081016040528092919081815260200182805461011290610558565b801561015f5780601f106101345761010080835404028352916020019161015f565b820191906000526020600020905b81548152906001019060200180831161014257829003601f168201915b505050505081565b60008082146101ab576040517f08c379a00000000000000000000000000000000000000000000000000000000081526004016101a2906105d5565b60405180910390fd5b819050919050565b80600090816101c291906107a1565b5050565b6060600080546101d590610558565b80601f016020809104026020016040519081016040528092919081815260200182805461020190610558565b801561024e5780601f106102235761010080835404028352916020019161024e565b820191906000526020600020905b81548152906001019060200180831161023157829003601f168201915b5050505050905090565b600081519050919050565b600082825260208201905092915050565b60005b83811015610292578082015181840152602081019050610277565b60008484015250505050565b6000601f19601f8301169050919050565b60006102ba82610258565b6102c48185610263565b93506102d4818560208601610274565b6102dd8161029e565b840191505092915050565b6000602082019050818103600083015261030281846102af565b905092915050565b6000604051905090565b600080fd5b600080fd5b6000819050919050565b6103318161031e565b811461033c57600080fd5b50565b60008135905061034e81610328565b92915050565b60006020828403121561036a57610369610314565b5b60006103788482850161033f565b91505092915050565b61038a8161031e565b82525050565b60006020820190506103a56000830184610381565b92915050565b600080fd5b600080fd5b7f4e487b7100000000000000000000000000000000000000000000000000000000600052604160045260246000fd5b6103ed8261029e565b810181811067ffffffffffffffff8211171561040c5761040b6103b5565b5b80604052505050565b600061041f61030a565b905061042b82826103e4565b919050565b600067ffffffffffffffff82111561044b5761044a6103b5565b5b6104548261029e565b9050602081019050919050565b82818337600083830152505050565b600061048361047e84610430565b610415565b90508281526020810184848401111561049f5761049e6103b0565b5b6104aa848285610461565b509392505050565b600082601f8301126104c7576104c66103ab565b5b81356104d7848260208601610470565b91505092915050565b6000602082840312156104f6576104f5610314565b5b600082013567ffffffffffffffff81111561051457610513610319565b5b610520848285016104b2565b91505092915050565b7f4e487b7100000000000000000000000000000000000000000000000000000000600052602260045260246000fd5b6000600282049050600182168061057057607f821691505b60208210810361058357610582610529565b5b50919050565b7f68656c6c6f20776f726c64206572726f72000000000000000000000000000000600082015250565b60006105bf601183610263565b91506105ca82610589565b602082019050919050565b600060208201905081810360008301526105ee816105b2565b9050919050565b60008190508160005260206000209050919050565b60006020601f8301049050919050565b600082821b905092915050565b6000600883026106577fffffffffffffffffffffffffffffffffffffffffffffffffffffffffffffffff8261061a565b610661868361061a565b95508019841693508086168417925050509392505050565b6000819050919050565b600061069e6106996106948461031e565b610679565b61031e565b9050919050565b6000819050919050565b6106b883610683565b6106cc6106c4826106a5565b848454610627565b825550505050565b600090565b6106e16106d4565b6106ec8184846106af565b505050565b5b81811015610710576107056000826106d9565b6001810190506106f2565b5050565b601f82111561075557610726816105f5565b61072f8461060a565b8101602085101561073e578190505b61075261074a8561060a565b8301826106f1565b50505b505050565b600082821c905092915050565b60006107786000198460080261075a565b1980831691505092915050565b60006107918383610767565b9150826002028217905092915050565b6107aa82610258565b67ffffffffffffffff8111156107c3576107c26103b5565b5b6107cd8254610558565b6107d8828285610714565b600060209050601f83116001811461080b57600084156107f9578287015190505b6108038582610785565b86555061086b565b601f198416610819866105f5565b60005b828110156108415784890151825560018201915060208501945060208101905061081c565b8683101561085e578489015161085a601f891682610767565b8355505b6001600288020188555050505b50505050505056fea2646970667358221220ea933897c2bb60d92bf7b5aaa7b5a8e1cf1c12633e2674e8d6df673bcedc92b264736f6c63430008110033",
  "immutableReferences": {},
  "source": "// SPDX-License-Identifier: MIT\npragma solidity ^0.8.17;\n\ncontract Mung {\n  string public text;\n\n  constructor(string memory _text) {\n    text = _text;\n  }\n\n  function setText(string memory _text) public {\n    text = _text;\n  }\n\n  function say() public view returns(string memory) {\n    return text;\n  }\n\n  function errorOccur(uint a) public pure returns(uint) {\n    require(a == 0, \"hello world error\");\n    return a;\n  }\n}",
  "sourcePath": "/Users/sdh/Study/BEB_07/projects/beb-07-second-EWE/contracts/contracts/Mung.sol",
  "compiler": {
    "name": "solc",
    "version": "0.8.17+commit.8df45f5f.Emscripten.clang"
  },
  "schemaVersion": "3.4.11",
  "updatedAt": "2023-01-03T02:32:26.049Z",
  "networkType": "ethereum",
  "devdoc": {
    "kind": "dev",
    "methods": {},
    "version": 1
  },
  "userdoc": {
    "kind": "user",
    "methods": {},
    "version": 1
  }
}